:100000000C94C8000C94F6000C94F6000C94F600C6
:100010000C94F6000C94F6000C94F6000C94F60088
:100020000C94F6000C94F6000C94F6000C94F60078
:100030000C94F6000C94A3170C94F6000C94F600A4
:100040000C94F6000C94F6000C94F6000C94F60058
:100050000C94F6000C94F6000C94F6000C94F60048
:100060000C94F6000C94F6000C94F6000C94F60038
:100070000C94F6000C94F6000C94F6000C94F60028
:100080000C94F6000C94F6000C94F6000C94F60018
:100090000C9402190C94D2180C94F6000C94F600EF
:1000A0000C94F6000C94F6000C94991A0C94F6003B
:1000B0000C94F6000C94F6000C94F6000C94F600E8
:1000C0000C94F6000C94F6000C94F6000C94F600D8
:1000D0000C94F6000C94F6000C94F6000C94F600C8
:1000E0000C94F6000C94F6000C94F6000C94F600B8
:1000F0000C94F6000C94F6000C94F6000C94F600A8
:100100000C94F6000C94F6000C94F6000C94F60097
:100110000C94F6000C94F6000C94F6000C94F60087
:100120000C94F6000C94F6000C94F6000C94F60077
:100130000C94F6000C945E210C94A5210C94882359
:100140000C9446230C94F0210C949F230C94830F61
:100150000C94DF140C9411080C94C1100C94CA2454
:100160000C9409240C9402220C94B0250C94CA25FA
:100170000C9446150C94AC210C9443220C94B3219E
:100180000C9440210C9446240C9456220C94392251
:1001900011241FBECFEFD1E8DEBFCDBF00E00CBF02
:1001A00084E590E0FC01108288E10FB6F89480931A
:1001B0006000109260000FBE000012E0A0E0B2E00C
:1001C000E6E0FFE500E00BBF02C007900D92AE39FC
:1001D000B107D9F721E1AEE9B2E001C01D92A63C1A
:1001E000B207E1F70E94082E0C94812F0C940000B6
:1001F000CF93DF93CDB7DEB70E94F9190E941401A7
:100200000E9470030E94E605DF91CF910895CF937D
:10021000DF93CDB7DEB70E9435050E94DD060E9450
:10022000D601DF91CF910895CF93DF93CDB7DEB79D
:1002300010929F0210929E02DF91CF910895CF936A
:10024000DF931F921F92CDB7DEB79A83898389818E
:100250009A810E94AB01982F81E08927882321F0A1
:1002600089819A810E949C020F900F90DF91CF911B
:100270000895CF93DF9300D000D0CDB7DEB79E8333
:100280008D831A82198280919E0290919F029C8395
:100290008B8353C02B813C818D819E812817390728
:1002A00009F040C089819A81009759F08B819C8127
:1002B000FC012081318189819A81FC013183208375
:1002C00009C08B819C81FC018081918190939F0268
:1002D00080939E028B819C81FC018081918100979B
:1002E00001F18B819C81FC01608171818B819C81FA
:1002F000FC0180819181FC012281338144815581FF
:100300008D819E81FC0182819381A481B581820FC0
:10031000931FA41FB51FFB0182839383A483B5831E
:1003200011C010C08B819C819A8389838B819C81B1
:10033000FC01808191819C838B838B819C810097C0
:1003400009F0A8CF26960FB6F894DEBF0FBECDBF3A
:10035000DF91CF910895CF93DF9300D01F92CDB757
:10036000DEB79C838B8380919E0290919F029A833B
:10037000898310C029813A818B819C812817390794
:1003800011F481E00CC089819A81FC018081918106
:100390009A83898389819A81009761F780E00F9021
:1003A0000F900F900F90DF91CF910895EF92FF92F1
:1003B0000F931F93CF93DF93CDB7DEB728970FB678
:1003C000F894DEBF0FBECDBF8091100D882309F4D5
:1003D000A6C08FE590E0FC0180818D83F894809128
:1003E000100D8E831092100D8FE590E02D81FC0191
:1003F00020838E81882F90E0A0E0B0E0880F991FC5
:10040000AA1FBB1F9C01AD01220F331F441F551FA4
:10041000220F331F441F551F820F931FA41FB51FA8
:1004200089839A83AB83BC833DC080919E02909167
:100430009F0298878F8380919E0290919F02FC017A
:1004400082819381A481B58129813A814B815C812C
:1004500079018A01E81AF90A0A0B1B0BD801C701B6
:1004600089839A83AB83BC8380919E0290919F0283
:10047000FC018081918190939F0280939E028F81E5
:100480009885FC018285813021F48F8198850E94B6
:100490009C028F819885FC01238534858F81988506
:1004A000F901199580919E0290919F02009799F011
:1004B00080919E0290919F02FC01228133814481B0
:1004C000558189819A81AB81BC8182179307A407EA
:1004D000B50708F0AACF80919E0290919F020097E5
:1004E000F1F060919E0270919F0280919E02909126
:1004F0009F02FC01228133814481558189819A8147
:10050000AB81BC8179018A01E81AF90A0A0B1B0B3D
:10051000D801C701FB0182839383A483B583289606
:100520000FB6F894DEBF0FBECDBFDF91CF911F9104
:100530000F91FF90EF900895EF92FF920F931F930A
:10054000CF93DF93CDB7DEB72A970FB6F894DEBF0F
:100550000FBECDBF9A87898780919E0290919F029E
:10056000009709F497C01A82198289859A85FC013F
:1005700086819781A085B1858B839C83AD83BE8363
:1005800080919E0290919F0298878F834DC08F81AA
:100590009885FC0122813381448155818B819C8126
:1005A000AD81BE8182179307A407B507D8F48F8168
:1005B0009885FC0122813381448155818B819C8106
:1005C000AD81BE8179018A01E81AF90A0A0B1B0B79
:1005D000D801C7012F813885F90182839383A483D1
:1005E000B58327C08F819885FC0182819381A48186
:1005F000B5812B813C814D815E8179018A01E81AA8
:10060000F90A0A0B1B0BD801C7018B839C83AD83AE
:10061000BE838F8198859A8389838F819885FC0119
:100620008081918198878F838F819885009709F0C9
:10063000AECF29853A858B819C81AD81BE81F90140
:1006400082839383A483B58389819A81009791F0F3
:1006500089819A81FC012081318189859A85FC01FB
:100660003183208389819A8129853A85FC013183F0
:10067000208329C020919E0230919F0289859A850E
:10068000FC013183208389859A8590939F02809312
:100690009E0219C089859A85FC0111821082898584
:1006A0009A85FC0186819781A085B18529853A8547
:1006B000F90182839383A483B58389859A85909376
:1006C0009F0280939E022A960FB6F894DEBF0FBE5B
:1006D000CDBFDF91CF911F910F91FF90EF900895C3
:1006E0000F931F93CF93DF93CDB7DEB789E391E0EC
:1006F000FC0120812160FC012083109221031092D3
:10070000230381E08093A00288E00E940F0586E524
:1007100091E02BEEFC0120838CE491E0FC01208130
:100720002068FC0120830DE611E00E948C04F80192
:100730008083DF91CF911F910F910895CF93DF9325
:100740001F92CDB7DEB789838981809321030E94F0
:10075000F9040F90DF91CF910895CF93DF931F920B
:10076000CDB7DEB789838981809322030E94CF04AD
:100770000F90DF91CF910895CF93DF931F92CDB764
:10078000DEB789838981809323030E94CF040F9071
:10079000DF91CF910895CF93DF9300D01F92CDB713
:1007A000DEB79C838B83CE0103969A83898382E68E
:1007B00091E029813A81F9012081FC01208383E6BF
:1007C00091E029813A81F9012181FC0120830F9078
:1007D0000F900F900F90DF91CF910895CF93DF93FB
:1007E00000D01F92CDB7DEB79C838B83CE010396DA
:1007F0009A83898380E691E029813A81F9012081F9
:10080000FC01208381E691E029813A81F90121816F
:10081000FC0120830F900F900F900F90DF91CF91EC
:100820000895CF93DF931F92CDB7DEB7898385E418
:1008300091E029812F702F70FC013081307F232BB4
:10084000FC0120830F90DF91CF910895CF93DF9328
:10085000CDB7DEB788E00E940F0589E391E0FC0187
:1008600020812260FC01208382E08093A002DF913E
:10087000CF910895CF93DF93CDB7DEB789E391E0B1
:10088000FC0120812D7FFC0120830E94F90481E07E
:100890008093A002DF91CF910895CF93DF9300D092
:1008A0001F92CDB7DEB79B838A836C8389E10E9458
:1008B0000F058FE491E02FEFFC01208380E891E0A9
:1008C0002C812E5FFC012083198213C08981882F1F
:1008D00090E08F579E4F2981222F30E04A815B8123
:1008E000240F351FF9012081FC01208389818F5F4E
:1008F000898399818C81981748F383E08093A002C3
:1009000082E491E022E0FC0120830F900F900F9091
:100910000F90DF91CF910895CF93DF9300D0CDB7A3
:10092000DEB71A82198286E591E0FC01108286E02A
:100930000E940F051B821EC081E00E94181A86E4E7
:1009400091E0FC0180818295869587708370882F65
:1009500090E02B81222F30E002C0880F991F2A954A
:10096000E2F729813A81822B932B9A8389838B81A9
:100970008E5F8B838B818031F8F288E00E940F05B7
:1009800086E591E02BEEFC0120830E94F904898129
:100990009A810F900F900F90DF91CF910895CF9390
:1009A000DF93CDB7DEB784E591E0209123032F706C
:1009B0002F70FC013081307F232BFC01208380913C
:1009C0002303882339F083E591E020912203FC0181
:1009D00020830CC088E491E0209122032F712F71B5
:1009E000FC013081307E232BFC012083DF91CF91ED
:1009F0000895CF93DF93CDB7DEB788E00E940F054F
:100A00008FE491E02FEFFC01208380912103882364
:100A100019F086E10E940F05DF91CF910895CF93E1
:100A2000DF931F92CDB7DEB7898382E491E023E0A4
:100A3000FC012083000081E491E0FC0180818F7142
:100A40008830C9F782E491E02981FC01208300000D
:100A500081E491E0FC0180818F71982F8981981742
:100A6000B9F70F90DF91CF910895CF93DF93CDB772
:100A7000DEB728970FB6F894DEBF0FBECDBF8091CA
:100A8000A002823009F499C08FE491E0FC018081DA
:100A90008870882309F459C08BE791E0FC018081BC
:100AA0008B83198211C08981882F90E02981222FA0
:100AB00030E020583E4FF90120818F559D4FFC01B9
:100AC000208389818F5F89838981282F30E08B8102
:100AD000882F90E00196281739072CF381EA92E0DD
:100AE0009D838C838B8182508E838B81882F90E0B5
:100AF0008F559D4FFC0180818F8387E491E0FC013D
:100B000080818A558887CE0104960E94A00E00003D
:100B100081E491E0FC0180818F718631C9F78FE417
:100B200091E0FC0120812860FC0120838CE491E0AD
:100B3000FC0120812F77FC0120838CE491E0FC01F3
:100B400020812068FC01208338C08FE491E0FC0103
:100B500080818074882389F181E491E0FC018081A7
:100B60008F71893119F582E491E0FC0180818295D1
:100B7000869587708A838A81882311F41A820EC031
:100B80008A81833019F481E08A8308C08A818530A4
:100B900019F482E08A8302C083E08A830E94F90408
:100BA00081E08093A0028A810E94AF158FE491E0DA
:100BB000FC0120812064FC01208328960FB6F89464
:100BC000DEBF0FBECDBFDF91CF910895CF93DF93EE
:100BD0001F92CDB7DEB71092EC0C1092ED0C109274
:100BE000E90C1092E80C10920F0D10920E0D198264
:100BF0000EC08981882F90E00396880F991F885135
:100C0000934FFC011182108289818F5F89838981D2
:100C1000803178F30E942C130E94680E0E94EC0829
:100C20000E94EA060E94F2090F90DF91CF91089589
:100C3000CF93DF931F921F92CDB7DEB79A8389833C
:100C400089819A819093E90C8093E80C89819A813B
:100C50000E94EE030F900F90DF91CF910895CF93F4
:100C6000DF931F921F92CDB7DEB79A838983898164
:100C70009A819093EB0C8093EA0C89819A810E946F
:100C8000CB030F900F90DF91CF910895CF93DF9317
:100C900000D0CDB7DEB789837B836A838981882FB3
:100CA00090E00396880F991F8851934F2A813B81CA
:100CB000FC01318320830F900F900F90DF91CF9133
:100CC0000895CF93DF93CDB7DEB780910E0D90914D
:100CD0000F0D21E0009709F420E0822FDF91CF91E2
:100CE0000895CF93DF93CDB7DEB780910E0D90912D
:100CF0000F0D019690930F0D80930E0DDF91CF9104
:100D00000895CF93DF93CDB7DEB780910E0D90910C
:100D10000F0D019790930F0D80930E0DDF91CF91E2
:100D20000895CF93DF93CDB7DEB70E942604DF91FD
:100D3000CF910895CF93DF93CDB7DEB70E943A04E9
:100D4000DF91CF910895CF93DF93CDB7DEB72C9786
:100D50000FB6F894DEBF0FBECDBF8C8789E0E5E407
:100D6000F2E0DE01139601900D928A95E1F789E198
:100D700089831A8215C09C858981981758F48A81C5
:100D8000882F90E09E012D5F3F4F820F931FFC0143
:100D900080810AC08981875E89838A818F5F8A8387
:100DA0008A81893040F38FEF2C960FB6F894DEBF1E
:100DB0000FBECDBFDF91CF910895CF93DF93CDB715
:100DC000DEB70E94E9120E94DE150E94B508DF918D
:100DD000CF910895CF93DF93CDB7DEB7109225035F
:100DE00010922403DF91CF910895CF93DF931F9248
:100DF0001F92CDB7DEB79A83898389819A81FC01DE
:100E0000148289819A81FC01178689819A81FC016B
:100E10001382128280910E0D90910F0D0196909386
:100E20000F0D80930E0D8091240390912503009760
:100E300061F489819A81FC011182108289819A81F1
:100E400090932503809324030FC0209124033091B5
:100E5000250389819A81FC013183208389819A81CC
:100E600090932503809324030F900F90DF91CF91EF
:100E70000895CF93DF9300D01F92CDB7DEB79C8348
:100E80008B830E940A099A83898389819A810097BA
:100E900059F48B819C8122E0FC0124838B819C810D
:100EA00022E0FC012787B6C08B819C8129813A8191
:100EB000FC01338322838B819C8121E0FC0124830C
:100EC00089819A8189579F4F21E138E0FC01318364
:100ED00020838B819C81FC018185882F90E0847028
:100EE000992721E0009709F420E089819A818A57A7
:100EF0009F4FFC0120838B819C81FC018185882F81
:100F000090E08170992721E0009709F420E0898121
:100F10009A812170FC0133853E7F232BFC012387BE
:100F20008B819C81FC018185882F90E088709927B6
:100F300021E0009709F420E089819A812170220F35
:100F4000220FFC0133853B7F232BFC0123878091FB
:100F5000EC0C8F5F8093EC0C2091EC0C89819A81D2
:100F6000FC0124872091E80C3091E90C89819A8159
:100F7000FC01368725878B819C81FC012581368188
:100F800089819A81FC01308B27878B819C81FC01B0
:100F90008085282F2F7089819A812F70FC013189DB
:100FA000307F232BFC01218B8B819C81FC0187816D
:100FB000282F2F7089819A812295207FFC01318909
:100FC0003F70232BFC01218B8B819C81FC0184854C
:100FD000482F50E08B819C81FC01228533858981DB
:100FE0009A818F579F4FFC0180819181B9010E94A6
:100FF0004A2F89819A81FC0121818B819C81FC018E
:101000008485280F89819A81FC01218389819A81B5
:101010000E945F130F900F900F900F90DF91CF9170
:101020000895CF93DF9300D01F92CDB7DEB79C8396
:101030008B8380912403909125039A8389832BC00D
:1010400089819A81FC01228133818B819C812817BF
:101050003907D1F48B819C818D579F4FFC012081F2
:1010600089819A81FC0127878B819C818A579F4FB8
:10107000FC01208189819A81FC01208B89819A81E0
:1010800022E0FC0124830BC089819A81FC018081CC
:1010900091819A83898389819A81009789F68B81CE
:1010A0009C810E947D090F900F900F900F90DF910F
:1010B000CF910895CF93DF9300D01F92CDB7DEB7C5
:1010C0009C838B8320912403309125038B819C8109
:1010D0002817390761F48091240390912503FC01BE
:1010E00080819181909325038093240325C0809172
:1010F0002403909125039A83898307C089819A816B
:10110000FC01808191819A83898389819A81FC0184
:10111000208131818B819C812817390779F789815A
:101120009A81FC0180819181FC012081318189813A
:101130009A81FC013183208380910E0D90910F0DD7
:10114000019790930F0D80930E0D8B819C81FC0174
:10115000258536858B819C81F90119950F900F901B
:101160000F900F90DF91CF910895CF93DF931F924F
:101170001F92CDB7DEB780912403909125039A8307
:10118000898321C089819A81FC018481882F90E024
:101190008130910581F08230910541F0009709F08E
:1011A0000BC089819A810E94390711C089819A8177
:1011B0000E945A080CC0000089819A81FC0180813C
:1011C00091819A83898389819A810097D9F60F90BA
:1011D0000F90DF91CF910895CF93DF931F92CDB7FA
:1011E000DEB7198210C08981282F30E049E8429F7C
:1011F000C001439F900D11248A5D9C4FFC01108219
:1012000089818F5F898389818A3068F30F90DF91AC
:10121000CF910895CF93DF931F92CDB7DEB7198298
:1012200062C08981282F30E049E8429FC001439F76
:10123000900D11248A5D9C4FFC018081882309F068
:101240004FC08981282F30E049E8429FC001439F69
:10125000900D11248A5D9C4F49E850E060E070E0F9
:101260000E94532F8981282F30E049E8429FC00116
:10127000439F900D1124895D9C4F20E1FC01208348
:101280008981482F50E08981282F30E069E8629FEA
:10129000C001639F900D112442969C012A5D3C4F32
:1012A00069E8649FC001659F900D112489559C4F8A
:1012B000FC013183208380910E0D90910F0D0196DA
:1012C00090930F0D80930E0D8981282F30E049E80F
:1012D000429FC001439F900D11248A5D9C4F09C01D
:1012E00089818F5F898389818A3008F49ACF80E071
:1012F00090E00F90DF91CF910895CF93DF931F92ED
:101300001F92CDB7DEB79A83898389819A81FC01C8
:10131000108280910E0D90910F0D019790930F0DFB
:1013200080930E0D0F900F90DF91CF910895CF9382
:10133000DF931F921F92CDB7DEB79A83898389818D
:101340009A81009729F486E293E09A83898316C0F4
:1013500089819A8187579F4F9A8389830FC089819A
:101360009A81FC018081882319F089819A810EC0BD
:1013700089819A8187579F4F9A83898389819A812E
:10138000F8E080389F0758F380E090E00F900F90CE
:10139000DF91CF910895CF93DF931F921F92CDB726
:1013A000DEB79A83898389819A818D579F4FFC018B
:1013B00010828091EC0C8F5F8093EC0C2091EC0CF0
:1013C00089819A81FC0124872091E80C3091E90CF5
:1013D00089819A81FC01368725870F900F90DF91D4
:1013E000CF910895CF93DF931F92CDB7DEB71982C7
:1013F00039C08981282F30E0C901880F991F880FD3
:10140000991F880F991F821B930B8F57974F2FEFB0
:101410003FEFFC01318320838981282F30E0C9010F
:10142000880F991F880F991F880F991F821B930B94
:101430008058974FFC0120812E7FFC0120838981F9
:10144000282F30E0C901880F991F880F991F880F36
:10145000991F821B930B8B57974FFC011082898138
:101460008F5F89838981843620F20F90DF91CF913D
:101470000895CF93DF9300D01F92CDB7DEB79B8343
:101480008A836C83198242C08981282F30E0C90188
:10149000880F991F880F991F880F991F821B930B24
:1014A0008F57974FFC01208131818A819B812817BA
:1014B000390749F58981282F30E0C901880F991F24
:1014C000880F991F880F991F821B930B8058974F85
:1014D000FC01808186958170282F30E08C81882FD7
:1014E00090E02817390779F48981282F30E0C90165
:1014F000880F991F880F991F880F991F821B930BC4
:101500008058974F09C089818F5F8983898184368C
:1015100008F4BACF80E090E00F900F900F900F90FA
:10152000DF91CF910895CF93DF9300D01F921F9248
:10153000CDB7DEB780E898E09A8389831C821B824E
:101540001D822DC089819A81FC0180818170882350
:1015500009F01DC089819A81FC018581882329F4C5
:1015600089819A819C838B831DC08B819C8100978C
:1015700051F089819A81FC0125818B819C81FC013C
:101580008581281720F489819A819C838B838D81A2
:101590008F5F8D8389819A8107969A8389838D8154
:1015A000843680F28B819C81FC0120812D7FFC019F
:1015B00020838B819C81FC0120812F702063FC01A2
:1015C00020838B819C8120E8FC0125838B819C8179
:1015D0000F900F900F900F900F90DF91CF91089583
:1015E000CF93DF931F921F92CDB7DEB79A83898383
:1015F00089819A81FC0180818170882309F00BC068
:1016000089819A812FEF3FEFFC0132832183898109
:101610009A81FC0115820F900F90DF91CF91089570
:10162000CF93DF9300D01F921F92CDB7DEB79C837C
:101630008B836D838B819C816D810E94390A9A8393
:10164000898389819A81009731F089819A81FC018F
:101650008381948102C08FEF9FEF0F900F900F90C6
:101660000F900F90DF91CF910895CF93DF93CDB777
:10167000DEB780E898E0DF91CF910895CF93DF93B4
:10168000CDB7DEB728970FB6F894DEBF0FBECDBF3B
:101690009C838B836D835F834E8328878B819C81A2
:1016A0006D810E94390A9A83898389819A81009782
:1016B00021F40E94930A9A83898389819A812B81DC
:1016C0003C81FC013283218389819A812E813F8173
:1016D000FC01348323838D81282F217089819A8195
:1016E0002170220FFC0130813D7F232BFC012083E0
:1016F00089819A81FC0120812F702063FC01208365
:1017000089819A8120E8FC01258389819A81288535
:10171000FC01268328960FB6F894DEBF0FBECDBF1E
:10172000DF91CF910895CF93DF9300D01F921F9246
:10173000CDB7DEB79C838B836D838B819C816D815C
:101740000E94390A9A83898389819A81009721F0BE
:1017500089819A810E94F00A0F900F900F900F904C
:101760000F90DF91CF910895CF93DF93CDB7DEB780
:1017700027970FB6F894DEBF0FBECDBF9F838E8331
:101780008E819F8102969C838B838B819C81FC013F
:1017900087819085992374F48B819C81FC0127813A
:1017A00030858B819C81FC018385948528173907BE
:1017B00009F089C08B819C81FC01838194818F3FDA
:1017C000FFEF9F0709F47FC08B819C81FC0183851B
:1017D000948560E00E94390A9A83898389819A817D
:1017E000009709F44EC08B819C81FC018581968114
:1017F0008F3FFFEF9F0779F42091E80C3091E90CBF
:101800008B819C81FC01858596852817390719F401
:1018100081E090E002C080E090E08D838D81817056
:101820008D8389819A81FC01238134818B819C8104
:10183000FC01878190852817390761F08E819F818F
:101840008D579F4FFC01208189819A81FC018681FF
:10185000821718F08D81882399F08B819C81FC017F
:101860002781308589819A81FC0134832383898192
:101870009A81FC0120812F702063FC01208319C014
:1018800018C00E94930A9A8389838B819C81FC01F2
:101890002385348589819A81FC01328321838B8160
:1018A0009C81FC012781308589819A81FC013483E8
:1018B00023838E819F818D579F4FFC0120818981D9
:1018C0009A81FC01268327960FB6F894DEBF0FBEDF
:1018D000CDBFDF91CF910895CF93DF9300D01F92BA
:1018E000CDB7DEB79C838B838B819C81FC01878580
:1018F00090898F3FFFEF9F0709F460C08B819C8127
:10190000FC01838583FB882780F9282F8B819C81AC
:10191000FC0187859089622F0E94390A9A83898306
:1019200089819A81009739F089819A81FC018081AF
:101930008170882309F042C08B819C818D579F4F15
:10194000FC0180818823D9F489819A81FC0120815E
:101950002F702063FC01208389819A81FC0185819D
:1019600021E0280F89819A81FC01258389819A8150
:10197000FC0185818F3F11F50E94130E1FC08981E4
:101980009A81FC01808182958F702FE0280F2F7043
:1019900089819A812295207FFC0130813F70232B21
:1019A000FC01208389819A81FC01808182958F705E
:1019B000882321F489819A810E94F00A0F900F9068
:1019C0000F900F90DF91CF910895CF93DF9300D0C8
:1019D0001F92CDB7DEB79C838B838B819C8102964F
:1019E0009A83898389819A81FC01858596858F3FB9
:1019F000FFEF9F0741F489819A812FEF3FEFFC01B0
:101A00003683258328C089819A81FC018185847071
:101A1000882359F089819A81FC0125853685898141
:101A20009A81FC013683258316C089819A81FC0145
:101A3000818583FB882780F9282F89819A81FC0181
:101A400085859685622F0E94100B9C0189819A8161
:101A5000FC01368325830F900F900F900F90DF913C
:101A6000CF910895CF93DF9300D01F92CDB7DEB70B
:101A70009C838B838B819C8102969A838983898145
:101A80009A81FC01818583FB882780F9282F898131
:101A90009A81FC0185859685622F0E94100B8F3FED
:101AA000FFEF9F0799F08B819C8189579F4FFC0125
:101AB000118210828B819C818A579F4F22E0FC010A
:101AC00020838B819C810E945F1319C089819A8138
:101AD000FC01818583FB882780F9482F89819A81C1
:101AE000FC012585368589819A81FC018385948551
:101AF000B9010E94860D8B819C810E947D090F9007
:101B00000F900F900F90DF91CF910895CF93DF93B7
:101B1000CDB7DEB729970FB6F894DEBF0FBECDBFA5
:101B20009E838D8378876F8349870E940A099A83F1
:101B3000898389819A81009709F441C089819A81BA
:101B40000E94CB0989819A81FC01818126E0280FBE
:101B500089819A81FC01218389819A8189579F4FCC
:101B6000FC011182108289819A812D813E81FC01C4
:101B7000308B278789819A818F579F4FFC01808105
:101B800091819C838B838B819C8121E0FC0120834C
:101B90008B819C812D813E81FC01328321838B814D
:101BA0009C812F813885FC01348323838B819C8128
:101BB0002985FC01258389819A810E945F132996DA
:101BC0000FB6F894DEBF0FBECDBFDF91CF91089561
:101BD000CF93DF9300D01F92CDB7DEB79C838B836A
:101BE0008B819C81FC01878190859A8389838B817D
:101BF0009C81FC018185863011F080E00DC08981D7
:101C00009A81FC01258189819A81FC0183819481DB
:101C1000622F0E94930B81E00F900F900F900F9016
:101C2000DF91CF910895CF93DF931F92CDB7DEB7A9
:101C3000198226C08981282F30E08981482F50E001
:101C4000CA01880F991F880F991F880F991F841B3D
:101C5000950B8B57974FFC018081869541E0480F8B
:101C6000C901880F991F880F991F880F991F821B20
:101C7000930B8B57974FFC01408389818F5F89833A
:101C800089818436B8F20F90DF91CF910895CF9378
:101C9000DF931F921F92CDB7DEB79A838983898124
:101CA0009A81FC01418189819A8102969C018981F6
:101CB0009A818F579F4FFC0180819181B901681BE8
:101CC000790BCB01840F0F900F90DF91CF91089586
:101CD000CF93DF931F92CDB7DEB7198211C08981F0
:101CE000282F30E0C901880F991F880F991F820F94
:101CF000931F805C944FFC01108289818F5F8983E0
:101D00008981823360F384E690E0A0E0B0E08093C4
:101D10003D0C90933E0CA0933F0CB093400C10925E
:101D2000410C83E89FE09093430C8093420C61EC5C
:101D300070E180E00E9446060F90DF91CF910895F8
:101D4000CF93DF9300D01F92CDB7DEB79C838B83F8
:101D50008B819C81FC01808191810196FC018081B5
:101D60008838C1F48B819C81FC0180819181FC01C8
:101D70008081813649F08B819C81FC018081918139
:101D8000FC018081813431F48B819C81FC01828152
:101D9000803108F43BC00E940A099A8389838981B3
:101DA0009A81009709F432C089819A8120E2FC016E
:101DB00020838B819C81FC01228189819A81FC0195
:101DC00021838B819C81FC01238189819A818D579C
:101DD0009F4FFC0120838B819C81FC0124818981A0
:101DE0009A818C579F4FFC0120838B819C81FC0141
:101DF0008281482F50E08B819C81FC0120813181C0
:101E000089819A810296B9010E944A2F0F900F9002
:101E10000F900F90DF91CF910895CF93DF9300D073
:101E200000D0CDB7DEB79E838D830E940A099A83C6
:101E3000898389819A81009709F44FC089819A81A9
:101E40000E94CB0989819A81FC01818123E0280FBE
:101E500089819A81FC01218389819A8189579F4FC9
:101E6000FC01118210828D819E81FC01838581FBA2
:101E7000222720F989819A812170220FFC01338564
:101E80003D7F232BFC0123878D819E81FC012585CD
:101E9000368589819A81FC01308B278789819A81D7
:101EA0008F579F4FFC01808191819C838B838B8115
:101EB0009C81FC0110822091360C8B819C81FC015D
:101EC00022838D819E81FC0124858B819C81FC0174
:101ED000218389819A810E945F1326960FB6F89418
:101EE000DEBF0FBECDBFDF91CF910895CF93DF93BB
:101EF0001F92CDB7DEB7898389818093360C0F900E
:101F0000DF91CF910895CF93DF9300D01F92CDB78B
:101F1000DEB79C838B8319821A8230C08A81282F76
:101F200030E0C901880F991F880F991F820F931FF6
:101F3000805C944FFC0180818823E9F08A81282FFE
:101F400030E0C901880F991F880F991F820F931FD6
:101F5000805C944FFC0180814FEF480FC901880FCE
:101F6000991F880F991F820F931F805C944FFC016B
:101F7000408381E089838A818F5F8A838A8182336B
:101F800068F28981882321F08B819C810E941F0146
:101F90000F900F900F900F90DF91CF910895CF93F6
:101FA000DF93CDB7DEB729970FB6F894DEBF0FBE2B
:101FB000CDBF998788871A8219821B82AEC08B8118
:101FC000282F30E0C901880F991F880F991F820FB1
:101FD000931F845C944F9D838C838C819D81FC0135
:101FE0008481882309F48CC088859985FC01238528
:101FF00034858C819D81FC0180819181281739076E
:1020000009F07EC08C819D81FC01228188859985A3
:10201000FC018285F22FF81B8F2F8E838E818830F2
:1020200008F048C08C819D81FC018381882F90E05D
:102030002E81222F30E0022E02C0959587950A94BA
:10204000E2F7817099270097F1F02091E80C309128
:10205000E90C88859985FC018581968128173907C7
:1020600081F488859985FC01818583FB882780F927
:10207000282F88859985FC0185859685622F0E9489
:10208000930B81E075C08C819D81FC018381482F79
:102090008E81282F30E081E090E002C0880F991FE8
:1020A0002A95E2F7842B282F8C819D81FC012383C4
:1020B00080E05EC08E8181958F8388859985FC0143
:1020C00022858C819D81FC0122838C819D81FC0174
:1020D0008381882F90E02F81222F30E002C0880F6B
:1020E000991F2A95E2F78160282F8C819D81FC0140
:1020F00023838C819D8125E1FC01248380E038C00D
:102100008C819D81FC018481882321F48C819D81B7
:102110009A8389838B818F5F8B838B81823308F4D1
:102120004ECF89819A81009711F481E021C0888582
:102130009985FC012385348589819A81FC0131834D
:10214000208388859985FC01228589819A81FC01FB
:10215000228389819A8121E0FC01238389819A81EC
:1021600025E1FC01248387E39CE00E941F0180E0BD
:1021700029960FB6F894DEBF0FBECDBFDF91CF9189
:102180000895CF93DF931F921F92CDB7DEB79A8346
:10219000898389819A81FC018185882311F480E0FB
:1021A0001AC089819A81FC0187819085FC01808118
:1021B000882F90E0009721F08130910531F00AC01E
:1021C00089819A810E94901406C089819A810E9417
:1021D000E80D01C080E00F900F90DF91CF9108953E
:1021E000CF93DF9300D01F92CDB7DEB79C838B8354
:1021F0008B819C8102969A8389838B819C8124E2C6
:10220000FC01208389819A81FC0181858270882369
:1022100009F0A2C089819A81FC0181858870882398
:1022200009F09AC089819A81FC01838194818F3F52
:10223000FFEF9F07E1F42091E80C3091E90C8981D0
:102240009A81FC01858596852817390749F089818F
:102250009A81FC01858596858F3FFFEF9F0731F4BA
:102260008B819C8122E2FC01208376C075C089812C
:102270009A81FC01858596858F3FFFEF9F0741F48A
:1022800089819A81FC0181858170882309F064C06D
:102290002091E80C3091E90C89819A81FC018385B9
:1022A00094852817390709F457C08B819C810E94B7
:1022B000B40B89819A810E94CF0F882309F04CC00A
:1022C00089819A81FC01858196818F3FFFEF9F076D
:1022D000B9F42091E80C3091E90C89819A81FC01D4
:1022E000858596852817390759F089819A81FC01DF
:1022F00081858470882321F48B819C810E94141431
:102300002091E80C3091E90C89819A81FC01858546
:1023100096852817390749F089819A81FC018585BE
:1023200096858F3FFFEF9F0731F48B819C8122E2DE
:10233000FC01208311C02091E80C3091E90C8981C7
:102340009A81FC01858196812817390729F48B81B0
:102350009C8123E2FC0120830F900F900F900F903F
:10236000DF91CF910895CF93DF93CDB7DEB760971C
:102370000FB6F894DEBF0FBECDBF988B8F878F85C9
:10238000988902969A83898389819A81FC0187853D
:1023900082958F70882F90E00396880F991F88513F
:1023A000934FFC0180819181009711F480E0AFC0D0
:1023B00089819A81FC01838594859C838B838981A3
:1023C0009A81FC01858596859E838D8389819A817A
:1023D000FC0187858F708F8389819A81FC018785B5
:1023E00082958F7088878F8598898F579F4FFC01C2
:1023F000808191819B878A878F8598890E94470E6B
:102400008C878F8598898D579F4FFC0180818D87A0
:102410008F8598898C579F4FFC0180818E87898199
:102420009A81FC018185982F917081E0992309F4AC
:1024300080E089878985282F89819A81FC0181859F
:102440008270822B89878985282F89819A81FC0156
:1024500081858470882311F080E201C080E0822BA6
:1024600089878985282F89819A81FC0181858870D7
:10247000882311F080E401C080E0822B8987898560
:10248000282F89819A81FC01858596858F3FFFEFF2
:102490009F0711F484E001C080E0822B8987898541
:1024A000482F89819A81FC012385348589819A810D
:1024B000FC01878190852817390711F488E001C055
:1024C00080E0842B89878985282F89819A81FC0166
:1024D000838194818F3FFFEF9F0711F480E101C05A
:1024E00080E0822B898789819A81FC01878582958A
:1024F0008F70882F90E00396880F991F8851934F13
:10250000FC0120813181CE010396F9011995609675
:102510000FB6F894DEBF0FBECDBFDF91CF91089507
:10252000CF93DF9300D0CDB7DEB79B838A83109221
:10253000360C8A819B810E94B31189838A819B8199
:10254000FC0183858170882309F419828A819B812B
:10255000FC01878190858F3FFFEF9F07A9F42091B1
:10256000E80C3091E90C8A819B81FC018785908978
:102570002817390749F48A819B81FC01838588707B
:10258000882311F481E089838A819B81FC01858104
:1025900096818F3FFFEF9F0709F419828091E80C25
:1025A0009091E90C8F3F2FEF920709F419828981EE
:1025B000882321F08A819B810E940D0F8A819B8153
:1025C00024E2FC0120830F900F900F90DF91CF91B8
:1025D0000895CF93DF931F921F92CDB7DEB71A8273
:1025E00019822BC089819A81FC018081882F90E01B
:1025F0008232910599F08332910524F4803291055D
:1026000041F01BC08332910571F08432910581F055
:1026100014C089819A810E94F0100FC089819A812B
:102620000E9490120AC089819A810E94320D05C0D1
:1026300089819A810E947D09000089819A810E9486
:1026400097099A83898389819A81009759F60F9017
:102650000F90DF91CF910895CF93DF93CDB7DEB781
:102660001092450C1092440C82E390E0A0E0B0E0A0
:1026700080934C0C90934D0CA0934E0CB0934F0C48
:102680001092500C8FED94E19093520C8093510C6A
:102690008AE090E0A0E0B0E08093590C90935A0C4F
:1026A000A0935B0CB0935C0C10925D0C86E495E1FA
:1026B00090935F0C80935E0CDF91CF910895CF9340
:1026C000DF9300D01F92CDB7DEB79C838B838B81C5
:1026D0009C8102969A8389838B819C818A579F4F24
:1026E000FC018081882F90E082709927009731F05B
:1026F0008B819C8122E1FC01208305C08B819C8120
:1027000022E1FC0120838B819C818D579F4FFC012E
:1027100010828B819C818A579F4FFC018081882F7A
:1027200090E081709927009741F089819A812FEF7D
:102730003FEFFC013483238309C02091EA0C3091E0
:10274000EB0C89819A81FC01348323838B819C81EA
:102750008A579F4FFC018081882F90E084709927D1
:10276000009789F48B819C818A579F4FFC0180815F
:10277000882F90E081709927009729F48B819C81A4
:102780000E94E50C0AC089819A81FC012585368565
:1027900089819A81FC01368325832091E80C309150
:1027A000E90C89819A81FC01308727838091ED0CA7
:1027B0008F5F8093ED0C2091ED0C89819A81FC0153
:1027C000228389819A81FC01858196818F3FFFEF69
:1027D0009F07A9F489819A8121E438E8FC013183BB
:1027E00020830E943B2F8770992701969C018B8143
:1027F0009C818C579F4FFC01318320830EC08981BF
:102800009A8121E638E8FC01318320838B819C8109
:102810008C579F4FFC01118210820F900F900F90E8
:102820000F90DF91CF910895CF93DF9300D01F9247
:10283000CDB7DEB79C838B830E940A099A83898374
:1028400089819A81009709F464C089819A8122E183
:10285000FC0120838B819C81FC01218189819A81EB
:10286000FC01218389819A818D579F4FFC01108241
:102870000E943B2F8770992701969C0189819A813C
:102880008C579F4FFC013183208389819A8189571E
:102890009F4FFC01118210828B819C81FC01818100
:1028A000482F50E08B819C819C012E5F3F4F898196
:1028B0009A810296B9010E944A2F89819A8121E466
:1028C00038E8FC013383228389819A812FEF3FEF1F
:1028D000FC01308727838B819C81FC012581368117
:1028E00089819A81FC01368325832091E80C3091FF
:1028F000E90C89819A81FC01328721878091ED0C56
:102900008F5F8093ED0C2091ED0C89819A81FC0101
:1029100024830F900F900F900F90DF91CF91089527
:10292000CF93DF9300D000D0CDB7DEB79E838D83E9
:102930008D819E81FC01878190859C838B831A8287
:1029400019828D819E81FC018185833011F080E0A8
:102950002DC021C089819A81FC0180818631D9F402
:1029600089819A81FC0124858B819C81FC01818174
:10297000281789F489819A8127E1FC0120838B81C2
:102980009C81FC01228189819A818A579F4FFC0199
:10299000208381E00BC089819A810E9497099A83E4
:1029A000898389819A810097A9F680E026960FB6DF
:1029B000F894DEBF0FBECDBFDF91CF910895CF93C6
:1029C000DF9300D01F921F92CDB7DEB79D838C831B
:1029D0001A8219821B8227C089819A81FC01808119
:1029E000863109F581E08B8389819A818C579F4FCD
:1029F000FC01808191819C012150310989819A815A
:102A00008C579F4FFC013183208389819A818C5799
:102A10009F4FFC0180819181009729F489819A81DF
:102A200060E10E942C1589819A810E9497099A83FE
:102A3000898389819A81009779F68B81882321F097
:102A40008C819D810E941F010F900F900F900F901D
:102A50000F90DF91CF910895CF93DF9300D0CDB742
:102A6000DEB79A8389836B8389819A8127E1FC0190
:102A7000208389819A818D579F4F2B81FC01208370
:102A80000F900F900F90DF91CF910895CF93DF9328
:102A900000D01F921F92CDB7DEB79D838C831A8220
:102AA00019821B8227C089819A81FC018081813132
:102AB00009F581E08B8389819A818C579F4FFC01B6
:102AC000808191819C012150310989819A818C57A3
:102AD0009F4FFC013183208389819A818C579F4FBE
:102AE000FC0180819181009729F489819A8123E1F9
:102AF000FC01208389819A810E9497099A838983A6
:102B000089819A81009779F68B81882321F08C81C5
:102B10009D810E941F010F900F900F900F900F90BA
:102B2000DF91CF910895CF93DF931F92CDB7DEB79A
:102B300089838981882F90E08130910539F0823036
:102B4000910531F0009731F480E005C080E203C0C8
:102B500081E201C081E00F90DF91CF9108950F9342
:102B60001F93CF93DF931F92CDB7DEB78983009178
:102B7000440C1091450C89810E949315282FC8019F
:102B80008D579F4FFC0120838091440C9091450C00
:102B900025E1FC0120831092450C1092440C809199
:102BA0000E0D90910F0D019790930F0D80930E0DC8
:102BB0000F90DF91CF911F910F910895CF93DF93E5
:102BC0001F921F92CDB7DEB71A821982BCC08981CD
:102BD0009A81FC018081882F90E08431910509F46D
:102BE000AFC0853191053CF48231910589F0833184
:102BF000910539F1A8C08631910509F4A3C0863149
:102C000091050CF444C08731910509F47BC09BC049
:102C100089819A818C579F4FFC0180819181009717
:102C200051F089819A8121E1FC01208383E59CE0B8
:102C30000E941F0188C089819A8123E1FC012083C1
:102C400082C08091440C9091450C0097F9F48981E1
:102C50009A819093450C8093440C89819A8124E158
:102C6000FC01208389819A81FC01218189819A81DB
:102C70000296622F0E944D0480910E0D90910F0DCF
:102C8000019690930F0D80930E0D5DC05CC08981FD
:102C90009A818D579F4FFC018081882361F589813E
:102CA0009A81FC01258536858091E80C9091E90C8C
:102CB00028173907D1F489819A81FC0183858170B5
:102CC000882399F089819A8126E1FC0120838981FA
:102CD0009A818C579F4F25E130E0FC01318320839E
:102CE00086E49CE00E941F010CC089819A8127E143
:102CF000FC01208306C089819A8127E1FC012083A1
:102D000022C021C089819A810E946C0C89819A819C
:102D100089579F4FFC0180819181009729F4898117
:102D20009A810E947D090FC089819A8189579F4F9E
:102D3000FC012081318189819A81F901199503C0B3
:102D4000000001C0000089819A810E9497099A833E
:102D5000898389819A81009709F039CF0F900F906C
:102D6000DF91CF910895CF93DF93CDB7DEB7000009
:102D700086EB90E0FC018081882F90E08F7199278D
:102D80000097B1F7DF91CF910895CF93DF93CDB73F
:102D9000DEB761970FB6F894DEBF0FBECDBF6A876E
:102DA0007B878C879D878A859B85AC85BD85880FB1
:102DB000991FAA1FBB1F880F991FAA1FBB1F880F2F
:102DC000991FAA1FBB1F880F991FAA1FBB1F880F1F
:102DD000991FAA1FBB1F28EE33E040E050E0BC0162
:102DE000CD010E94902EDA01C9018C839D83AE83B0
:102DF000BF838C819D81AE81BF810097A105B10504
:102E000009F498C08C819D81AE81BF81892F9A2F52
:102E1000AB2FBB279A8389838C818B8380E790E0DB
:102E2000FC01108286EB90E026EB30E0F901208176
:102E30002062FC01208380EB90E0FC01108281EB9A
:102E400090E0FC01108282EB90E0FC0110820E9475
:102E5000B31687E390E027E0FC01208381EB90E04C
:102E600027E0FC0120831092600C89819A810097F1
:102E700031F083EB90E02FEFFC01208328C08B81A1
:102E8000882331F083EB90E02B81FC0120831FC06D
:102E90000E94B31680E790E0FC01108281EB90E085
:102EA000FC01108283E490E023E430E0F90120810A
:102EB0002260FC0120830E94B31686EB90E026EB93
:102EC00030E0F90120812F7DFC01208333C080E7B1
:102ED00090E020E730E0F90120812260FC012083AE
:102EE0000E94B31683E590E027E0FC0120838895DB
:102EF00083E590E0FC0110828FE590E0FC01808189
:102F00008887F8948091600C89878FE590E0288508
:102F1000FC0120838985882361F089819A8100974B
:102F200031F089819A8101979A83898302C01B823B
:102F30009ACF99CF61960FB6F894DEBF0FBECDBF82
:102F4000DF91CF9108951F920F9200905F000F9232
:102F500011248F93CF93DF93CDB7DEB781E08093B9
:102F6000600CDF91CF918F910F9000925F000F90D6
:102F70001F901895CF93DF93CDB7DEB72C970FB680
:102F8000F894DEBF0FBECDBF6D837E838F8398879D
:102F90008D819E81AF81B885880F991FAA1FBB1FA5
:102FA000880F991FAA1FBB1F880F991FAA1FBB1F3D
:102FB000880F991FAA1FBB1F9C01AD0180E098E4F8
:102FC000A8EEB1E0BC01CD010E94902EDA01C9014A
:102FD0000197A109B10989839A83AB83BC832DEC46
:102FE00030E089819A81AB81BC81892F9A2FAB2FE8
:102FF000BB27F90180838CEC90E02981FC012083C0
:1030000088EC90E022E0FC01208389EC90E028E944
:10301000FC0120838AEC90E026E0FC0120838BE613
:103020009CE090936A0C8093690C84E690E0909306
:10303000660C8093650C1092680C1092670C1092CD
:10304000620C1092610C1092640C1092630C8AED69
:103050009CE09093D90C8093D80C81E090E0909301
:10306000D50C8093D40C1092D70C1092D60C1092E1
:10307000D10C1092D00C1092D30C1092D20C81E093
:103080008093DC0C1092DD0C2C960FB6F894DEBF0A
:103090000FBECDBFDF91CF910895CF93DF931F92E5
:1030A000CDB7DEB789832091670C3091680C809191
:1030B000650C9091660C2817390709F42CC02091F3
:1030C000690C30916A0C8091630C9091640CAC0196
:1030D0004F5F5F4F5093640C4093630C820F931FBC
:1030E0002981FC0120832091630C3091640C809134
:1030F000650C9091660C2817390721F41092640C26
:103100001092630C8091670C9091680C01969093DB
:10311000680C8093670C0F90DF91CF910895CF9347
:10312000DF931F921F92CDB7DEB78FE590E0FC01D1
:1031300080818983F8942091D80C3091D90C8091AA
:10314000D00C9091D10CAC014F5F5F4F5093D10CDC
:103150004093D00C820F931FFC0180818A832091C1
:10316000D00C3091D10C8091D40C9091D50C2817B3
:10317000390721F41092D10C1092D00C8091D60C0A
:103180009091D70C01979093D70C8093D60C8FE534
:1031900090E02981FC0120838A810F900F90DF91BC
:1031A000CF9108951F920F9200905F000F9211240B
:1031B00000905B000F922F933F938F939F93EF9319
:1031C000FF93CF93DF93CDB7DEB781E08093DC0C24
:1031D00089EC90E029EC30E0F90120812F7DFC01A1
:1031E0002083DF91CF91FF91EF919F918F913F913C
:1031F0002F910F9000925B000F9000925F000F9054
:103200001F9018951F920F9200905F000F9211244B
:1032100000905B000F922F933F934F935F938F9398
:103220009F93EF93FF93CF93DF931F921F92CDB79E
:10323000DEB788EC90E0FC01808189838EEC90E021
:10324000FC0180818A838981882F90E08C71992785
:103250000097D9F52091D60C3091D70C8091D40CE1
:103260009091D50C2817390709F42FC02091D80C5C
:103270003091D90C8091D20C9091D30CAC014F5F5E
:103280005F4F5093D30C4093D20C820F931F2A812F
:10329000FC0120832091D20C3091D30C8091D40C6E
:1032A0009091D50C2817390721F41092D30C109265
:1032B000D20C8091D60C9091D70C01969093D70C9C
:1032C0008093D60C81E08093DD0C0F900F90DF91FE
:1032D000CF91FF91EF919F918F915F914F913F918E
:1032E0002F910F9000925B000F9000925F000F9063
:1032F0001F901895CF93DF9300D000D0CDB7DEB7E5
:103300008091670C9091680C009709F44CC08091F3
:10331000DC0C882309F447C02091690C30916A0CB9
:103320008091610C9091620CAC014F5F5F4F5093A4
:10333000620C4093610C820F931FFC018081898392
:103340002091610C3091620C8091650C9091660C1B
:103350002817390721F41092620C1092610C8091A9
:10336000670C9091680C01979093680C8093670CA0
:103370008FE590E0FC0180818A83F8948EEC90E0E8
:103380002981FC01208389EC90E029EC30E0F901EF
:1033900020812062FC0120831092DC0C8FE590E0FC
:1033A0002A81FC0120838FE590E0FC0180818B83E2
:1033B000F8948091DD0C8C831092DD0C8091D60CFA
:1033C0009091D70C9E838D838FE590E02B81FC013B
:1033D00020838C81882321F08D819E810E94872CFF
:1033E00026960FB6F894DEBF0FBECDBFDF91CF910A
:1033F0000895CF93DF93CDB7DEB784E590E0FC016D
:10340000108288E10FB6F8948093600010926000FB
:103410000FBE81E690E020E8FC01208381E690E089
:10342000FC01108278940E94271ADF91CF910895B1
:10343000CF93DF931F92CDB7DEB789838981882F21
:1034400090E00E944E1A0F90DF91CF910895CF9394
:10345000DF93CDB7DEB71092100D88EA90E020E23E
:103460003EE4FC013183208381EA90E028E0FC0106
:10347000208381EA90E021EA30E0F9012081226096
:10348000FC01208382E790E022E730E0F90120810F
:103490002260FC012083DF91CF910895CF93DF93C9
:1034A0001F921F92CDB7DEB79A8389838AEA90E094
:1034B00024EA30E0F9014081518129813A81240FC9
:1034C000351FFC01318320838AEA90E0FC012081D2
:1034D000318188EA90E0FC01808191818217930715
:1034E00098F48AEA90E02AEA30E0F90140815181BB
:1034F00028EA30E0F90120813181BA01621B730BA7
:103500009B01FC013183208389E390E024E0FC01EE
:103510002083000089E390E0FC018081882F90E007
:10352000847099270097B1F30F900F90DF91CF919E
:1035300008951F920F9200905F000F9211248F93B5
:10354000CF93DF93CDB7DEB78091100D8F5F80935F
:10355000100DDF91CF918F910F9000925F000F902F
:103560001F901895CF93DF93CDB7DEB784E290E03C
:10357000FC0110828AE290E0FC0110828DE290E072
:10358000FC01108280E390E0FC01108283E390E074
:10359000FC01108285E290E0FC0110828BE290E059
:1035A000FC0110828EE290E0FC01108281E390E049
:1035B000FC01108284E390E0FC0110828AE790E035
:1035C0002AE730E0F90120812F77FC01208380E594
:1035D00090E020E8FC0120838EE790E02FEFFC01D3
:1035E00020838DE790E02FEFFC0120838FE790E0B0
:1035F00023E0FC012083DF91CF910895CF93DF93E7
:103600001F921F92CDB7DEB79A83898360E080E076
:1036100090E00E94100B9093540D8093530D1092E4
:10362000310D1092300D8091B3118093320D809145
:10363000B3118093330D82E08093340D8CE39DE0D1
:103640009093360D8093350D85E28093370D8981F7
:103650009A819093390D8093380D8BE29DE00E9402
:10366000F5060F900F90DF91CF910895CF93DF93E0
:1036700000D000D0CDB7DEB79E838D8360E080E0C0
:1036800090E00E94100B9093540D8093530D0E9474
:103690007D299A8389830E94AB299C838B838091A7
:1036A000C5118093570D8B819C81CC01A0E0B0E0C7
:1036B0008093580D9093590DA0935A0DB0935B0DC4
:1036C00089819A81CC01A0E0B0E080935C0D909359
:1036D0005D0DA0935E0DB0935F0D1092310D1092B1
:1036E000300D8091B3118093320D8091B31180938E
:1036F000330D82E08093340D8CE39DE09093360D82
:103700008093350D85E28093370D8D819E81909356
:10371000390D8093380D8BE29DE00E94F5062696C8
:103720000FB6F894DEBF0FBECDBFDF91CF910895E5
:10373000CF93DF93CDB7DEB70E94B21A8AE290E052
:103740002AE230E0F90120812064FC0120838BE231
:1037500090E02BE230E0F90120812064FC0120831D
:1037600083E390E023E330E0F90120812460FC0151
:10377000208384E390E024E330E0F9012081246099
:10378000FC0120838DE290E02DE230E0F901208100
:103790002460FC0120838EE290E02EE230E0F9010B
:1037A00020812460FC012083DF91CF9108952F9226
:1037B0003F924F925F926F927F928F929F92AF92C1
:1037C000BF92CF92DF92EF92FF920F931F93CF930E
:1037D000DF93CDB7DEB7C354D1090FB6F894DEBF7F
:1037E0000FBECDBF81E080933C0D8091AF118093DF
:1037F0003D0D21E282E091E0FC012093570084918D
:10380000898389818A838A81282F30E040E050E0D3
:1038100060E070E0CB0120933E0D30933F0D40936C
:10382000400D5093410D6093420D7093430D809372
:10383000440D9093450D21E283E091E0FC0120933B
:10384000570084918B838B818A8320903E0D30902A
:103850003F0D4090400D5090410D6090420D709092
:10386000430D8090440D9090450D8A81A82EB12C77
:10387000C12CD12CE12CF12C87012A2D3B2D4C2D74
:103880005D2D6E2D7F2D802F912F08E00E94BD2E83
:10389000A22EB32EC42ED52EE62EF72E082F192FCA
:1038A000F22DFA29FC87832D8B298D87E42DEC29B5
:1038B000EE87F52DFD29FF87862D8E29888BE72D34
:1038C000EF29E98BF82DF02BFA8B892D812B8B8B2F
:1038D000EC85E0933E0DFD85F0933F0D8E85809342
:1038E000400DEF85E093410DF889F093420D8989F1
:1038F0008093430DEA89E093440DFB89F093450DD5
:1039000021E284E091E0FC012093570084918C83B4
:103910008C818A8320903E0D30903F0D4090400D69
:103920005090410D6090420D7090430D8090440D79
:103930009090450D8A81A82EB12CC12CD12CE12C60
:10394000F12C87012A2D3B2D4C2D5D2D6E2D7F2DC9
:10395000802F912F00E10E94BD2EA22EB32EC42EE7
:10396000D52EE62EF72E082F192FF22DFA29FC8BD3
:10397000832D8B298D8BE42DEC29EE8BF52DFD29E4
:10398000FF8B862D8E29888FE72DEF29E98FF82D63
:10399000F02BFA8F892D812B8B8FEC89E0933E0DD4
:1039A000FD89F0933F0D8E898093400DEF89E09360
:1039B000410DF88DF093420D898D8093430DEA8D72
:1039C000E093440DFB8DF093450D21E285E091E0FD
:1039D000FC012093570084918D838D818A832090F0
:1039E0003E0D30903F0D4090400D5090410D609045
:1039F000420D7090430D8090440D9090450D8A814A
:103A0000A82EB12CC12CD12CE12CF12C87012A2D10
:103A10003B2D4C2D5D2D6E2D7F2D802F912F08E19C
:103A20000E94BD2EA22EB32EC42ED52EE62EF72E2A
:103A3000082F192FF22DFA29FC8F832D8B298D8FBA
:103A4000E42DEC29EE8FF52DFD29FF8F862D8E2993
:103A500088A3E72DEF29E9A3F82DF02BFAA3892DF0
:103A6000812B8BA3EC8DE0933E0DFD8DF0933F0DEC
:103A70008E8D8093400DEF8DE093410DF8A1F09372
:103A8000420D89A18093430DEAA1E093440DFBA16F
:103A9000F093450D21E286E091E0FC012093570070
:103AA00084918E838E818A8320903E0D30903F0DCD
:103AB0004090400D5090410D6090420D7090430D2C
:103AC0008090440D9090450D8A81A82EB12CC12C78
:103AD000D12CE12CF12C87012A2D3B2D4C2D5D2D75
:103AE0006E2D7F2D802F912F00E20E94BD2EA22EE1
:103AF000B32EC42ED52EE62EF72E082F192FF22D19
:103B0000FA29FCA3832D8B298DA3E42DEC29EEA3A8
:103B1000F52DFD29FFA3862D8E2988A7E72DEF29F6
:103B2000E9A7F82DF02BFAA7892D812B8BA7ECA103
:103B3000E0933E0DFDA1F0933F0D8EA18093400DCB
:103B4000EFA1E093410DF8A5F093420D89A5809374
:103B5000430DEAA5E093440DFBA5F093450D21E24A
:103B600087E091E0FC012093570084918F838F813F
:103B70008A8320903E0D30903F0D4090400D509034
:103B8000410D6090420D7090430D8090440D9090D7
:103B9000450D8A81A82EB12CC12CD12CE12CF12C01
:103BA00087012A2D3B2D4C2D5D2D6E2D7F2D802FD5
:103BB000912F08E20E94BD2EA22EB32EC42ED52E28
:103BC000E62EF72E082F192FF22DFA29FCA7832DA8
:103BD0008B298DA7E42DEC29EEA7F52DFD29FFA754
:103BE000862D8E2988ABE72DEF29E9ABF82DF02B38
:103BF000FAAB892D812B8BABECA5E0933E0DFDA597
:103C0000F0933F0D8EA58093400DEFA5E093410DFD
:103C1000F8A9F093420D89A98093430DEAA9E09396
:103C2000440DFBA9F093450D21E288E091E0FC01F1
:103C3000209357008491888788858A8320903E0D41
:103C400030903F0D4090400D5090410D6090420DDE
:103C50007090430D8090440D9090450D8A81A82E60
:103C6000B12CC12CD12CE12CF12C87012A2D3B2D1C
:103C70004C2D5D2D6E2D7F2D802F912F00E30E9406
:103C8000BD2EA22EB32EC42ED52EE62EF72E082F33
:103C9000192FF22DFA29FCAB832D8B298DABE42D46
:103CA000EC29EEABF52DFD29FFAB862D8E2988AFD3
:103CB000E72DEF29E9AFF82DF02BFAAF892D812BF5
:103CC0008BAFECA9E0933E0DFDA9F0933F0D8EA9BB
:103CD0008093400DEFA9E093410DF8ADF093420DB4
:103CE00089AD8093430DEAADE093440DFBADF093B5
:103CF000450D21E289E091E0FC0120935700849179
:103D0000898789858A8320903E0D30903F0D4090B1
:103D1000400D5090410D6090420D7090430D809089
:103D2000440D9090450D8A81A82EB12CC12CD12C28
:103D3000E12CF12C87012A2D3B2D4C2D5D2D6E2D74
:103D40007F2D802F912F08E30E94BD2EA22EB32E2F
:103D5000C42ED52EE62EF72E082F192FF22DFA2974
:103D6000FCAF832D8B298DAFE42DEC29EEAFF52D23
:103D7000FD29FFAF862D8E2921968FAF2197E72D44
:103D8000EF292296EFAF2297F82DF02B2396FFAF65
:103D90002397892D812B24968FAF2497ECADE09348
:103DA0003E0DFDADF0933F0D8EAD8093400DEFAD18
:103DB000E093410D2196FFAD2197F093420D22969D
:103DC0008FAD22978093430D2396EFAD2397E09319
:103DD000440D2496FFAD2497F093450D21E282E037
:103DE00091E0FC012093570084918A878A858A8319
:103DF0008A81882F90E09093DF0C8093DE0C21E283
:103E000083E091E0FC012093570084918B878B85A0
:103E10008A838A81882F90E0382F22278091DE0CB8
:103E20009091DF0C822B932B9093DF0C8093DE0C10
:103E30008091DE0C9091DF0C9093470D8093460D9E
:103E400020913E0D30913F0D4091400D5091410D1C
:103E50006091420D7091430D8091440D9091450DFC
:103E60002093480D3093490D40934A0D50934B0DCC
:103E700060934C0D70934D0D80934E0D90934F0DAC
:103E80008091B0119091B1119093510D8093500D8C
:103E90008091B2118093520D1092540D1092530DD7
:103EA0001092550D1092560D8091C5118093570DAB
:103EB0001092580D1092590D10925A0D10925B0DE0
:103EC00010925C0D10925D0D10925E0D10925F0DC0
:103ED000CD5BDF4F0FB6F894DEBF0FBECDBFDF91D5
:103EE000CF911F910F91FF90EF90DF90CF90BF90F7
:103EF000AF909F908F907F906F905F904F903F908A
:103F00002F900895CF93DF9300D01F92CDB7DEB7E7
:103F10009C838B838091DE0C9091DF0C0E941806AD
:103F20008091B0119091B1110E942F068091B21131
:103F30000E94AD038091C511829586958770880F88
:103F40000E94110481E00E949E032091B3118B8195
:103F50009C81BC01822F0E9446060E948C049A8399
:103F600089830E948C049A8389830E948C049A839B
:103F7000898389819A810E943F2F0F900F900F9023
:103F80000F90DF91CF910895CF93DF931F921F92EF
:103F9000CDB7DEB79A8389838091C511882F90E0D1
:103FA0008F719927AC014F5F5F4F20E137E2429F4D
:103FB000C001439F900D529F900D1124AA2797FD99
:103FC000A095BA2F8093170D9093180DA093190DFB
:103FD000B0931A0D10921B0D89819A8190931D0D3B
:103FE00080931C0D0F900F90DF91CF910895CF9388
:103FF000DF931F921F92CDB7DEB79A8389838AEF32
:1040000090E0A0E0B0E08093240D9093250DA09364
:10401000260DB093270D81E08093280D89819A8128
:1040200090932A0D8093290D0F900F90DF91CF91DF
:104030000895CF93DF931F92CDB7DEB78983909118
:10404000C5118981981759F189818093C5110E9402
:10405000E22D8091C511829586958770880F0E9408
:1040600011048091C511882F90E08F719927AC01C0
:104070004F5F5F4F20E137E2429FC001439F900DA9
:10408000529F900D1124AA2797FDA095BA2F8093D7
:10409000170D9093180DA093190DB0931A0D0F9052
:1040A000DF91CF910895CF93DF93CDB7DEB72C97F3
:1040B0000FB6F894DEBF0FBECDBF998788876A8799
:1040C0005C874B871A82198281E090E09C838B8306
:1040D0001E821D8281E08F8358C0288539858981A1
:1040E0009A81820F931FFC0180818823D1F42B8554
:1040F0003C858D819E81820F931F2F81FC0120833F
:1041000081E08F838B819C819C012F5F3F4F3C839B
:104110002B839E838D8389819A8101969A838983DB
:1041200034C08B819C819C012F5F3F4F3C832B834C
:104130002B853C85280F391F89819A81AC014F5FFF
:104140005F4F5A83498348855985840F951FFC0129
:104150008081F90180838F818F5F8F838F818F3F73
:10416000A1F42B853C858D819E81820F931F2F8129
:10417000FC01208381E08F838B819C819C012F5FD8
:104180003F4F3C832B839E838D838A85282F30E08D
:1041900089819A818217930708F49FCF2B853C85EC
:1041A0008D819E81820F931F2F81FC0120838B8143
:1041B0009C812C960FB6F894DEBF0FBECDBFDF9169
:1041C000CF910895CF93DF93CDB7DEB729970FB680
:1041D000F894DEBF0FBECDBF98878F8369871B829F
:1041E0008F8198859D838C838091E70C882309F0CB
:1041F0003EC08C819D81FC0114A2198218C0898166
:10420000882F90E02C813D81820F931FFC018081DB
:104210008E838C819D81FC0194A18E81292F28277A
:104220008C819D81FC0124A389818F5F8983898191
:10423000843228F38F81988541E65DE069850E948C
:1042400053208B831A820CC08A81882F90E08F596B
:10425000924FFC0180810E944D188A818F5F8A8372
:104260009A818B81981780F380E00E944D182996DF
:104270000FB6F894DEBF0FBECDBFDF91CF9108958A
:10428000CF93DF931F921F92CDB7DEB79A838983B6
:1042900089819A81FC01218589819A81FC0187812C
:1042A0009085622F0E94E2208091C5110E94760FB6
:1042B00081E00F900F90DF91CF910895CF93DF931E
:1042C0001F92CDB7DEB70E94981B0E94D71B109299
:1042D000DF0C1092DE0C8091DE0C9091DF0C90933D
:1042E000470D8093460D80E491E20E94821F19825F
:1042F0008981882351F48BE290E02BE230E0F901D0
:1043000020812F7BFC01208319C08981813051F4E9
:1043100084E390E024E330E0F90120812B7FFC016D
:1043200020830CC08981823049F48EE290E02EE235
:1043300030E0F90120812B7FFC01208381E0809314
:10434000E60C0F90DF91CF910895CF93DF93CDB717
:10435000DEB7DF91CF910895CF93DF93CDB7DEB76E
:10436000DF91CF910895CF93DF9300D0CDB7DEB723
:104370009B838A8319828981882351F48BE290E0A0
:104380002BE230E0F90120812064FC01208319C078
:104390008981813051F484E390E024E330E0F90135
:1043A00020812460FC0120830CC08981823049F483
:1043B0008EE290E02EE230E0F90120812460FC01E1
:1043C00020838A819B81FC0180890E94192083E0DF
:1043D0008093E60C0F900F900F90DF91CF9108958E
:1043E000CF93DF93CDB7DEB70E94981B0E94D71BF7
:1043F00080E090E00E94821F81E08093E60CDF91D4
:10440000CF910895CF93DF931F92CDB7DEB7198276
:104410008981882351F48BE290E02BE230E0F901AE
:1044200020812F7BFC01208319C08981813051F4C8
:1044300084E390E024E330E0F90120812B7FFC014C
:1044400020830CC08981823049F48EE290E02EE214
:1044500030E0F90120812B7FFC01208383EB91E286
:104460000E94361B82E08093E60C0F90DF91CF9183
:104470000895CF93DF93CDB7DEB785E08093E60C48
:10448000DF91CF910895CF93DF93CDB7DEB70E9430
:104490006106982F81E08927882329F00E949106E0
:1044A00086E08093E60CDF91CF910895EF92FF9222
:1044B0000F931F93CF93DF93CDB7DEB72C970FB633
:1044C000F894DEBF0FBECDBF8AE290E02AE230E072
:1044D000F90120812F7BFC0120838BE290E02BE20D
:1044E00030E0F90120812F7BFC01208383E390E001
:1044F00023E330E0F90120812B7FFC01208384E35A
:1045000090E024E330E0F90120812B7FFC0120833F
:104510008DE290E02DE230E0F90120812B7FFC015B
:1045200020838EE290E02EE230E0F90120812B7FA3
:10453000FC0120830E94B21A8091C511882F90E05F
:104540008F719927AC014F5F5F4F20E137E2429FA7
:10455000C001439F900D529F900D11249595879512
:1045600095958795959587959E838D830E943B2F82
:1045700098878F838D819E819C0140E050E08F81E0
:104580009885CC01A0E0B0E0BC01CD010E94802E56
:10459000DC01CB012FEF3FE740E050E0BC01CD0153
:1045A0000E94902EDA01C90189839A83AB83BC8370
:1045B00089819A81AB81BC8181709927AA27BB2709
:1045C0000097A105B10541F18091C511882F90E0B8
:1045D0008F719927AC014F5F5F4F20E137E2429F17
:1045E000C001439F900D529F900D11249C014427C0
:1045F00037FD4095542F89819A81AB81BC81790127
:104600008A01E81AF90A0A0B1B0BD801C701898332
:104610009A83AB83BC8322C08091C511882F90E020
:104620008F719927AC014F5F5F4F20E137E2429FC6
:10463000C001439F900D529F900D1124AA2797FD12
:10464000A095BA2F29813A814B815C81820F931FFB
:10465000A41FB51F89839A83AB83BC8389819A8108
:10466000AB81BC81BC01CD010E94C51687E080935F
:10467000E60C2C960FB6F894DEBF0FBECDBFDF91CF
:10468000CF911F910F91FF90EF900895CF93DF93FB
:10469000CDB7DEB70E949A068AE290E02AE230E0C7
:1046A000F90120812064FC0120838BE290E02BE261
:1046B00030E0F90120812064FC01208383E390E055
:1046C00023E330E0F90120812460FC01208384E3AE
:1046D00090E024E330E0F90120812460FC01208394
:1046E0008DE290E02DE230E0F90120812460FC01B0
:1046F00020838EE290E02EE230E0F90120812460F8
:10470000FC01208381E08093E60CDF91CF91089536
:10471000CF93DF931F921F92CDB7DEB79A83898321
:104720008FEF8093E20C8091E60C843019F481E0E5
:104730008093E60C0F900F90DF91CF910895CF9367
:10474000DF9300D01F92CDB7DEB79C838B831A8294
:10475000198252C089819A8182959295907F98277B
:10476000807F98278A56924FFC0180819181811524
:10477000FFEF9F07E1F189819A8182959295907F61
:104780009827807F98278A56924FFC0180819181DB
:104790009C012F5F3F4F89819A8182959295907FEE
:1047A0009827807F98278A56924FFC013183208377
:1047B00089819A8182959295907F9827807F98270A
:1047C0008A56924FFC01808191818330910578F067
:1047D00089819A8182959295907F9827807F9827EA
:1047E0008A56924F20E03FEFFC013183208389817C
:1047F0009A8101969A83898389819A81823391056E
:104800000CF4A8CF0F900F900F900F90DF91CF91E5
:104810000895CF93DF9300D0CDB7DEB79B838A8313
:1048200019828981882351F48BE290E02BE230E0F9
:10483000F90120812064FC01208319C08981813025
:1048400051F484E390E024E330E0F9012081246016
:10485000FC0120830CC08981823049F48EE290E013
:104860002EE230E0F90120812460FC0120838A815E
:104870009B81FC0180890E94192083E08093E60CD3
:104880000F900F900F90DF91CF910895CF93DF930A
:104890001F921F92CDB7DEB70E94981B0E94D71BB4
:1048A00088E893E20E94C41F8FE993E20E94F71FF9
:1048B00080E090E00E94821F80E390E020E330E0FF
:1048C000F90120812160FC01208381E390E021E354
:1048D00030E0F90120812E7FFC01208380E390E00D
:1048E00020E330E0F90120812D7FFC0120831A8232
:1048F000198236C089819A8182959295907F9827F6
:10490000807F98278257924F2FEFFC0120832FEF53
:10491000FC0121832FEFFC0122832FEFFC01238375
:104920002FEFFC0124832FEFFC0125832FEFFC01E7
:1049300026832FEFFC01278389819A8182959295A6
:10494000907F9827807F98278A56924F20E03FEFEC
:10495000FC013183208389819A8101969A8389831E
:1049600089819A81823391052CF28FEF9FEF90938A
:10497000E10C8093E00C8FEF8093E20C8EE19DE0E0
:104980000E941F0181E08093E60C0F900F90DF9151
:10499000CF910895CF93DF931F921F92CDB7DEB7CB
:1049A0008091E20C8F3F89F50E94D71B1982898183
:1049B000882351F48BE290E02BE230E0F901208172
:1049C0002F7BFC01208319C08981813051F484E35D
:1049D00090E024E330E0F90120812B7FFC0120836B
:1049E0000CC08981823049F48EE290E02EE230E002
:1049F000F90120812B7FFC01208389E094E20E9451
:104A0000361B82E08093E60CA6C08091E00C90916A
:104A1000E10C8F3FFFEF9F0721F484E08093E60CC9
:104A20009AC082E080933C0D8091E00C9091E10C63
:104A300082959295907F9827807F9827FC01E25776
:104A4000F24F208131814281538164817581868159
:104A5000978120933E0D30933F0D4093400D50932E
:104A6000410D6093420D7093430D8093440D9093DC
:104A7000450D8091E00C9091E10C82959295907F8C
:104A80009827807F98278756924FFC0180818093DA
:104A9000560D8091E00C9091E10C82959295907F5B
:104AA0009827807F98278656924FFC0180819181BC
:104AB000CC01A0E0B0E08093580D9093590DA093E5
:104AC0005A0DB0935B0D8091E00C9091E10C8295B2
:104AD0009295907F9827807F98278456924FFC016B
:104AE00080819181CC01A0E0B0E080935C0D909337
:104AF0005D0DA0935E0DB0935F0D1A828A818823AD
:104B000051F48BE290E02BE230E0F90120812F7B21
:104B1000FC01208319C08A81813051F484E390E044
:104B200024E330E0F90120812B7FFC0120830CC0BD
:104B30008A81823049F48EE290E02EE230E0F90181
:104B400020812B7FFC01208389E094E20E94FE1AE1
:104B500082E08093E60C0F900F90DF91CF91089543
:104B6000CF93DF93CDB7DEB78091E20C8F3F31F466
:104B70001092E20C81E19DE00E941F018FEF9FEFF8
:104B80009093E10C8093E00C84E08093E60CDF913D
:104B9000CF910895CF93DF9300D01F92CDB7DEB7AA
:104BA0008091E60C843009F05BC08091E00C90911C
:104BB000E10C8F3F2FEF920709F052C08FEF9FEF6C
:104BC0009A8389831C821B8229C08B819C81829558
:104BD0009295907F9827807F98278A56924FFC0164
:104BE000808191818115FFEF9F0799F08B819C81D6
:104BF00082959295907F9827807F98278856924F2C
:104C0000FC018081882329F48B819C819A8389838C
:104C10000AC08B819C8101969C838B838B819C81B4
:104C20008233910590F289819A818F3FFFEF9F0730
:104C300009F416C089819A8182959295907F982770
:104C4000807F98278856924F2FEFFC01208389811F
:104C50009A819093E10C8093E00C81E08093E60CC4
:104C60000F900F900F900F90DF91CF9108952F929A
:104C70003F924F925F926F927F928F929F92AF92EC
:104C8000BF92CF92DF92EF92FF920F931F93CF9339
:104C9000DF93CDB7DEB72C970FB6F894DEBF0FBE0B
:104CA000CDBF2D833E834F83588769877A878B8753
:104CB0009C878FEF9FEF9A8389831C821B825BC046
:104CC0008B819C8182959295907F9827807F9827F1
:104CD0008A56924FFC01808191818115FFEF9F07D9
:104CE00061F489819A818F3F2FEF920709F03EC0CE
:104CF0008B819C819A83898339C08B819C81829529
:104D00009295907F9827807F98278257924FFC0139
:104D1000A080FC01B180FC01C280FC01D380FC01B9
:104D2000E480FC01F580FC010681FC0117812D80E7
:104D30003E804F80588469847A848B849C842A2D99
:104D40003B2D4C2D5D2D6E2D7F2D802F912FA22C74
:104D5000B32CC42CD52CE62CF72C082D192D0E9431
:104D6000D62E21F48B819C819D6F45C08B819C81C7
:104D700001969C838B838B819C81823391050CF4FB
:104D80009FCF89819A818F3FFFEF9F0719F480E0C1
:104D90009EEF31C089819A8182959295907F982764
:104DA000807F98278257924F2D81FC0120832E818E
:104DB000FC0121832F81FC0122832885FC012383B0
:104DC0002985FC0124832A85FC0125832B85FC0190
:104DD00026832C85FC01278389819A81829592956F
:104DE000907F9827807F98278A56924FFC011182E6
:104DF000108289819A812C960FB6F894DEBF0FBE7F
:104E0000CDBFDF91CF911F910F91FF90EF90DF9079
:104E1000CF90BF90AF909F908F907F906F905F905A
:104E20004F903F902F900895AF92BF92CF92DF9214
:104E3000EF92FF920F931F93CF93DF93CDB7DEB71F
:104E400069970FB6F894DEBF0FBECDBF998F888FDC
:104E5000888D998D4B96FC0180810E94012A8C835C
:104E6000888D998D4C96FC0180810E94012A8D834A
:104E70008C81882F90E082959295907F9827807FF3
:104E80009827982F8D81892B8E8319821B821A82F5
:104E900010C08A819B81288D398D820F931FFC0160
:104EA00080819981892789838A819B8101969B834F
:104EB0008A838A819B818B3191055CF39E818981F4
:104EC000981709F009C2CE01409698878F838F8189
:104ED00098850796FC0110828F8198850696FC01C3
:104EE0001082888D998D0196FC0180810E94012A93
:104EF0008C83888D998D0296FC0180810E94012A05
:104F00008D838F81988505962C81222F30E0229504
:104F10003295307F3227207F3227322F2D81232B6D
:104F2000FC012083888D998D0396FC0180810E946D
:104F3000012A8C83888D998D0496FC0180810E94C2
:104F4000012A8D838F81988504962C81222F30E051
:104F500022953295307F3227207F3227322F2D81C4
:104F6000232BFC012083888D998D0596FC0180817F
:104F70000E94012A8C83888D998D0696FC01808180
:104F80000E94012A8D838F81988503962C81222F80
:104F900030E022953295307F3227207F3227322F22
:104FA0002D81232BFC012083888D998D0796FC0190
:104FB00080810E94012A8C83888D998D0896FC013E
:104FC00080810E94012A8D838F81988502962C8191
:104FD000222F30E022953295307F3227207F3227F2
:104FE000322F2D81232BFC012083888D998D0996EA
:104FF000FC0180810E94012A8C83888D998D0A96FC
:10500000FC0180810E94012A8D838F819885019601
:105010002C81222F30E022953295307F3227207F5D
:105020003227322F2D81232BFC012083888D998DEF
:105030000B96FC0180810E94012A8C83888D998DBA
:105040000C96FC0180810E94012A8D838C81882F1F
:1050500090E082959295907F9827807F9827982F4F
:105060008D81892B282F8F819885FC012083888D45
:10507000998D0E96FC0180810E94012A8C83888D77
:10508000998D0F96FC0180810E94012A8D838C816D
:10509000882F90E082959295907F9827807F98271F
:1050A000982F8D81892B8987CE010E9698878F83C3
:1050B000888D998D4196FC0180810E94012A8C8304
:1050C000888D998D4296FC0180810E94012A8D83F2
:1050D0008C81882F90E082959295907F9827807F91
:1050E0009827982F8D81892B282F8F819885FC01F7
:1050F0002083888D998D4396FC0180810E94012A2E
:105100008C83888D998D4496FC0180810E94012AB0
:105110008D838F81988501962C81222F30E02295F6
:105120003295307F3227207F3227322F2D81232B5B
:10513000FC012083CE010C9698878F83888D998DF2
:105140004696FC0180810E94012A8C83888D998D6E
:105150004796FC0180810E94012A8D838C81882FD3
:1051600090E082959295907F9827807F9827982F3E
:105170008D81892B282F8F819885FC012083888D34
:10518000998D4896FC0180810E94012A8C83888D2C
:10519000998D4996FC0180810E94012A8D838F811F
:1051A000988501962C81222F30E022953295307F10
:1051B0003227207F3227322F2D81232BFC012083A1
:1051C000A888B988CA88DB88EC88FD880E891F8981
:1051D0002A2D3B2D4C2D5D2D6E2D7F2D802F912F57
:1051E0000E9437269B878A878A859B8588279D7F93
:1051F0008115FDEF9F0789F58A859B8599279B87F8
:105200008A878A859B8582959295907F9827807F53
:1052100098278756924F2985FC0120832C853D8550
:105220008A859B8582959295907F9827807F982785
:105230008656924FFC01318320832E853F858A85D7
:105240009B8582959295907F9827807F982784569A
:10525000924FFC01318320833FC08A859B85811555
:10526000FEEF9F0709F438C08A859B858295929549
:10527000907F9827807F98278756924F2985FC0139
:1052800020832C853D858A859B8582959295907F8C
:105290009827807F98278656924FFC013183208380
:1052A0002E853F858A859B8582959295907F98274C
:1052B000807F98278456924FFC01318320838A8512
:1052C0009B8582959295907F9827807F9827885616
:1052D000924FFC011082000069960FB6F894DEBF71
:1052E0000FBECDBFDF91CF911F910F91FF90EF9037
:1052F000DF90CF90BF90AF900895CF93DF93CDB75D
:10530000DEB787E790E02AE0FC0120838BE790E09E
:1053100028E0FC0120838CE790E029ECFC0120834D
:105320008AE790E024ECFC0120838AE790E0FC010E
:105330008081882F90E0807499270097B1F78AE7E1
:1053400090E0FC01108288E790E0FC01808191816F
:10535000DF91CF910895CF93DF93CDB7DEB787E785
:1053600090E02AE0FC0120838BE790E028E0FC013C
:1053700020838CE790E026ECFC0120838AE790E014
:1053800024ECFC0120838AE790E0FC018081882FD7
:1053900090E0807499270097B1F78AE790E0FC01CC
:1053A000108288E790E0FC0180819181DF91CF91AC
:1053B0000895CF93DF931F921F92CDB7DEB78A83F4
:1053C0008A8182958F70882F90E08F7099278C5CEE
:1053D0009D4FFC018081898389810E944D188A81BB
:1053E000882F90E08F7099278C5C9D4FFC01808105
:1053F000898389810E944D180F900F90DF91CF9182
:105400000895CF93DF931F921F92CDB7DEB78A83A3
:105410008A81813430F08A81873418F48A818062ED
:105420008A8319820FC08981882F90E08C5C9D4F00
:10543000FC0190818A81981711F4898107C08981C4
:105440008F5F89838981803170F380E80F900F909E
:10545000DF91CF910895CF93DF9300D01F92CDB706
:10546000DEB79C838B831A8219820FC089819A814F
:105470009C012F5F3F4F3A8329832B813C81820F10
:10548000931FFC0180810E944D182B813C818981F2
:105490009A81820F931FFC018081882339F70F9036
:1054A0000F900F900F90DF91CF910895CF93DF93DE
:1054B0001F921F92CDB7DEB79A83898389819A8123
:1054C0000E942B2A80E00E944D180F900F90DF91D0
:1054D000CF910895CF93DF93CDB7DEB72A970FB65C
:1054E000F894DEBF0FBECDBF98878F837A87698718
:1054F0008091B1100E94012A8B838091B2100E948A
:10550000012A8C8319821A8289859A8582309105B5
:1055100051F48091B3100E94012A89838091B410C4
:105520000E94012A8A839B818C81982B8981982BE8
:105530008A81892B882F90E09E838D838D819E8127
:1055400080789927009729F08EE492E00E942B2A18
:105550003DC089859A858230910529F58B81882FF8
:1055600090E09C01322F22273295307F8C81882F4A
:1055700090E0982F8827282B392B8981882F90E05D
:1055800082959295907F9827807F9827282B392B9A
:105590008A81882F90E0282B392B8F819885FC01F8
:1055A0003183208311C08B81882F90E08295929562
:1055B000907F9827807F9827982F8C81892B282F80
:1055C0008F819885FC0120830E94E22D2A960FB6D8
:1055D000F894DEBF0FBECDBFDF91CF910895CF937A
:1055E000DF93CDB7DEB72E970FB6F894DEBF0FBEB0
:1055F000CDBF19828091AE108062813609F06FC1F3
:105600008091AF108062843709F069C181E089839D
:105610008091B010882319F481E0898360C1809162
:10562000B01080628A838A81883709F58091B11031
:105630008F3319F481E089830AC08091B1108133DE
:1056400021F481E08093E70C02C01092E70C83E51F
:1056500092E00E942B2A8091E70C882321F081E3BD
:105660000E944D183CC180E30E944D1838C18A81C8
:105670008A3761F488E190E028E00FB6F894A895A5
:10568000809360000FBE20936000FFCF8A818E362A
:1056900009F050C08091B1108F3349F486E592E053
:1056A0000E942B2A8091AF110E94D92918C18091A4
:1056B000B110803381F41092AF110E94E22D88E185
:1056C00090E028E00FB6F894A895809360000FBE94
:1056D00020936000FFCF8091B110813389F481E085
:1056E0008093AF110E94E22D88E190E028E00FB690
:1056F000F894A895809360000FBE20936000FFCFC0
:105700008091B110823389F482E08093AF110E94BE
:10571000E22D88E190E028E00FB6F894A8958093F8
:1057200060000FBE20936000FFCF8EE492E00E94E5
:105730002B2AD5C08A818136B1F48091B1108F3384
:1057400019F481E0898306C061E070E085EC91E1A5
:105750000E946A2A8BE592E00E942B2A8091C51153
:105760000E94D929BCC08A81803701F58091B1108F
:105770008F3319F481E0898306C062E070E080EB2A
:1057800091E10E946A2A80E692E00E942B2A809191
:10579000B0119091B111892F99270E94D929809138
:1057A000B0119091B1110E94D92999C08A81833694
:1057B000B1F48091B1108F3319F481E0898306C070
:1057C00061E070E082EB91E10E946A2A85E692E056
:1057D0000E942B2A8091B2110E94D92980C08A810F
:1057E000823709F07BC08091C511882F90E08F71BE
:1057F0009927AC014F5F5F4F20E137E2429FC00124
:10580000439F900D529F900D1124959587959595E6
:105810008795959587959C838B830E943B2F9E83CC
:105820008D838B819C819C0140E050E08D819E8125
:10583000CC01A0E0B0E0BC01CD010E94802EDC01D3
:10584000CB012FEF3FE740E050E0BC01CD010E94CB
:10585000902EDA01C9018F839887A987BA878AE6D3
:1058600092E00E942B2A8B819C81892F99270E948C
:10587000D9298B810E94D9298FE692E00E942B2A98
:105880008D819E81892F99270E94D9298D810E941F
:10589000D92985E792E00E942B2A8F819885A985D6
:1058A000BA858B2F9927AA27BB270E94D9298F81D8
:1058B0009885A985BA85CD01AA27BB270E94D92939
:1058C0008F819885A985BA85892F9A2FAB2FBB2701
:1058D0000E94D9298F810E94D92901C0198289810A
:1058E000882329F08BE792E00E942B2A04C080E8ED
:1058F00092E00E942B2A80E00E944D182E960FB64F
:10590000F894DEBF0FBECDBFDF91CF910895CF9346
:10591000DF9300D01F921F92CDB7DEB79D838C839B
:105920001A82198232C00E948F188B838B818D302E
:1059300019F08B818A30B1F48091AE108A3229F44B
:105940008EEA90E10E94142702C00E94EF2A40E0F4
:1059500051E060E070E08EEA90E10E94532F1092D7
:10596000E30C0EC08091E30C882F90E082559F4E8F
:105970002B81FC0120838091E30C8F5F8093E30CEB
:1059800089819A8101969A83898329813A818C81C0
:105990009D812817390738F20F900F900F900F90C4
:1059A0000F90DF91CF910895CF93DF93CDB7DEB7FE
:1059B00041E051E060E070E08EEA90E10E94532FF8
:1059C0001092E30C83E892E00E942B2A80E00E9470
:1059D0004D18DF91CF910895CF93DF93CDB7DEB708
:1059E000F89481E0DF91CF910895CF93DF931F92D8
:1059F0001F92CDB7DEB79A8389838FE590E0298126
:105A00003A81F9012081FC0120830F900F90DF91F2
:105A1000CF910895CF93DF931F921F92CDB7DEB73A
:105A20009A8389838FE390E0FC018081882F90E046
:105A3000827099270097B1F781E490E029813A813B
:105A4000FC01318320838FE390E021E0FC0120837F
:105A500080E490E0FC0180810F900F90DF91CF9166
:105A60000895CF93DF93CDB7DEB727970FB6F8949D
:105A7000DEBF0FBECDBF9E838D836F838FE590E029
:105A8000FC0180818C830E94EC2C898361C08FE3B0
:105A900090E0FC018081882F90E082709927009728
:105AA000B1F781E490E02D813E81FC0131832083B8
:105AB0008FE390E021E0FC01208380E490E0FC0192
:105AC00080818A839A818F8189278B839B818F81B3
:105AD0008923882331F18F818F3FA1F080E490E00A
