:100000000C94C8000C94F2000C94F2000C94F200D2
:100010000C94F2000C94F2000C94F2000C94F20098
:100020000C94F2000C94F2000C94F2000C94F20088
:100030000C94F2000C94F50B0C94F2000C94F2006A
:100040000C94F2000C94F2000C94F2000C94F20068
:100050000C94F2000C94F2000C94F2000C94F20058
:100060000C94F2000C94F2000C94F2000C94F20048
:100070000C94F2000C94F2000C94F2000C94F20038
:100080000C94F2000C94F2000C94F2000C94F20028
:100090000C94D30C0C94B70C0C94F2000C94F2005A
:1000A0000C94F2000C94F2000C94C50D0C94F20028
:1000B0000C94F2000C94F2000C94F2000C94F200F8
:1000C0000C94F2000C94F2000C94F2000C94F200E8
:1000D0000C94F2000C94F2000C94F2000C94F200D8
:1000E0000C94F2000C94F2000C94F2000C94F200C8
:1000F0000C94F2000C94F2000C94F2000C94F200B8
:100100000C94F2000C94F2000C94F2000C94F200A7
:100110000C94F2000C94F2000C94F2000C94F20097
:100120000C94F2000C94F2000C94F2000C94F20087
:100130000C94F2000C9411110C941A110C944110AF
:100140000C94D5110C94A7100C9427070C946511EE
:100150000C9407110C942B100C94B7100C940404FD
:100160000C943A110C94AB100C9451110C9483091B
:100170000C942A100C94A5110C942C100C941507B7
:100180000C9423110C94B2090C942F110C946E1141
:1001900011241FBECFEFD1E8DEBFCDBF00E00CBF02
:1001A00014BE88E10FB6F89480936000109260004E
:1001B0000FBE12E0A0E0B2E0EEE7FFE200E00BBF0E
:1001C00002C007900D92A23AB107D9F721E1A2EA45
:1001D000B2E001C01D92AA3CB207E1F70E946C1682
:1001E0000C94BD170C9400000E94740D0E945E01D7
:1001F0000E94EB020C9481030E9407030E94FE03FD
:100200000C94BA010F931F93CF93DF93FC0180915D
:10021000A2029091A302B681A78130852185009723
:10022000F1F14B2F5A2F632F722FDC01D0E0C0E089
:1002300012960D911D912D913C91159740175107E4
:100240006207730768F4041B150B260B370B129615
:100250000D931D932D933C931597AD2FBC2F0EC07E
:10026000401B510B620B730B2D913C911197211583
:10027000310521F0DA2FCB2FD901DACF4283538316
:1002800064837583109741F08D919C9111979183B0
:100290008083ED93FC930DC09183808306C011820F
:1002A0001082B283A38334832583F093A302E09367
:1002B000A202DF91CF911F910F9108951092A30296
:1002C0001092A2020895CF93DF93E091A202F091E1
:1002D000A302A0E0B0E0309751F1E817F90711F55B
:1002E00020813181109719F02D933C9304C03093F5
:1002F000A3022093A2020190F081E02D3097B9F083
:100300004281538164817581EC018A819B81AC813A
:10031000BD81480F591F6A1F7B1F4283538364832B
:10032000758305C0DF010190F081E02DD4CFDF910E
:10033000CF910895E091A202F091A302309739F095
:10034000E817F90731F00190F081E02DF7CF80E058
:10035000089581E00895CF93DF93EC010E949A0104
:10036000811105C0CE01DF91CF910C940201DF9184
:10037000CF910895CF92DF92EF92FF92CF93DF93C8
:100380008091140D8823D1F18FB7F8942091140D2A
:100390001092140D8FBF30E0AAE0B0E00E94F51675
:1003A0006B017C01C091A202D091A302209731F190
:1003B0004A815B816C817D81C416D506E606F7060D
:1003C000A8F0C41AD50AE60AF70A888199819093A1
:1003D000A3028093A2028A85813019F4CE010E9483
:1003E0000201EB85FC85CE011995DCCF4C195D0926
:1003F0006E097F094A835B836C837D83DF91CF9194
:10040000FF90EF90DF90CF9008959091A4029F709D
:1004100080915401807F892B809354019091A40294
:100420008091A502992319F0809353010895982F84
:100430009F7180914801807E892B809348010895A7
:1004400093E090934201909141019F719830D9F7C8
:1004500080934201909141019F718913FBCF0895D0
:1004600088E00E9420028FEF80934F018091A602C6
:10047000882319F086E10C94200208958093A60247
:100480000C9430028093A5020C9405028093A40280
:100490000C940502CF93DF931F921F92CDB7DEB766
:1004A0009A838983809362018A81809363010F908C
:1004B0000F90DF91CF910895CF93DF931F921F92FA
:1004C000CDB7DEB79A838983809360018A81809358
:1004D00061010F900F90DF91CF9108958F70E5E447
:1004E000F1E09081907F982B9083089588E00E949E
:1004F0002002E9E3F1E080818260808382E08093E2
:1005000027030895E9E3F1E080818D7F80830E94D5
:10051000300281E08093270308951F93CF93DF93E8
:100520001F921F92CDB7DEB7182F89E169839A8396
:100530000E9420028FEF80934F01698182E0860F35
:1005400080938001212FE12F9A81F92FA1E8B1E05A
:100550008E2F821B861718F481918D93F9CF83E03B
:100560008093270382E0809342010F900F90DF91E8
:10057000CF911F9108950F931F93CF93DF93109204
:10058000560186E00E942002C0E0D0E000E010E0CA
:1005900081E00E94850D8091460182958695837049
:1005A00090E00C2E02C0880F991F0A94E2F7082BE6
:1005B000192B2296C031D10559F788E00E942002FC
:1005C0008BEE809356010E943002C801DF91CF91DB
:1005D0001F910F910895E9E3F1E0808181608083AC
:1005E0001092A6021092A40281E08093270388E073
:1005F0000E9420028BEE80935601ECE4F1E08081B2
:10060000806880830E94BB0280936D010895CF9320
:10061000DF9300D000D0CDB7DEB7809127038230C2
:1006200009F466C080914F0183FF3CC050917B016B
:1006300040E0252F30E0842F90E02817390754F050
:10064000FC01E058FE4F6081FC01E955FD4F6083DD
:100650004F5FF1CF87EA92E09A83898352505B83A0
:10066000F901E955FD4F80818C83809147018A55BE
:100670008D83CE0101960E945D07809141018F71AB
:100680008631D9F780914F01886080934F01809126
:100690004C018F7780934C0180914C01806880934E
:1006A0004C0126C080914F0186FF22C080914101FC
:1006B0008F718931C1F4809142018295869587704E
:1006C00049F0833021F0853021F482E003C081E0DD
:1006D00001C083E08E830E94300291E09093270353
:1006E0008E810E94D50A80914F01806480934F01D2
:1006F00026960FB6F894DEBF0FBECDBFDF91CF9127
:1007000008951092F00C1092F10C1092ED0C1092D2
:10071000EC0C1092130D1092120DE2EFFCE011920E
:1007200011928DE0E231F807D1F70E94E9090E94A9
:100730003C070E94DE040E9420040C944A0590931A
:10074000ED0C8093EC0C0C945C029093EF0C809376
:10075000EE0C0C944A02E82FF0E0EE0FFF1FEE5073
:10076000F34F71836083089581E02091120D3091E1
:10077000130D232B09F480E00895E2E1FDE0808170
:1007800091810196918380830895E2E1FDE080816B
:10079000918101979183808308950C9476020C9443
:1007A0008202CF93DF93CDB7DEB729970FB6F894C7
:1007B000DEBF0FBECDBF99E0E5E4F2E0DE011196A9
:1007C00001900D929A95E1F720E099E1891740F4A4
:1007D000E1E0F0E0EC0FFD1FE20FF11D808105C0AC
:1007E000975E2F5F9A3F91F78FEF29960FB6F89497
:1007F000DEBF0FBECDBFDF91CF9108950E948B0762
:100800000E94F60A0C944304E0912803F091290316
:100810003097A1F0228133812817390759F4DC0180
:10082000AD57BF4F2C91278713962C91208B22E038
:10083000248304C00190F081E02DEACF0C941905C7
:1008400010922903109228030895FC011482178640
:10085000138212828091120D9091130D0196909344
:10086000130D8093120D8091280390912903009716
:1008700019F41182108202C091838083F0932903BE
:10088000E093280308950F931F93CF93DF93E09194
:100890002803F0912903EF01209709F48AC08C8185
:1008A000882321F0823009F45AC07FC00E94E804F6
:1008B0008C01009721F482E08C838F877AC09B8320
:1008C0008A8381E08C83F801E957FF4F84E094E04C
:1008D000918380833197898582FB882780F9808383
:1008E0009985F801838590FB80F98387998593FB2F
:1008F000992790F990FB82F983878091F00C8F5FA4
:100900008093F00C84878091EC0C9091ED0C96878D
:1009100085878D819E81908B878798859F7081893F
:10092000807F892B818B9F819295907F8F70892BFF
:10093000818BEF57FF4F4C8550E06A857B85808126
:1009400091810E948217F80181819C85890F8183A2
:10095000C801DF91CF911F910F910C94160AEC17EB
:10096000FD0739F4888199819093290380932803A6
:100970000BC0808191818C179D0711F0FC01F9CF8C
:1009800088819981918380838091120D9091130DBC
:1009900001979093130D8093120DED85FE85CE0186
:1009A000DF91CF911F910F9119940990D881C02D9B
:1009B00073CFDF91CF911F910F910895EAE2F3E099
:1009C0001082E757FF4F88E0E438F807C9F7089529
:1009D000EAE2F3E080E090E02081211121C049E8C3
:1009E000489F9001499F300D1124C901865D9C4F9D
:1009F000FC0111924A95E9F740E1FC014183EF5770
:100A0000FF4F245C3C4F318320832091120D3091A5
:100A1000130D2F5F3F4F3093130D2093120D089548
:100A20000196E757FF4F8A309105B1F680E090E0DC
:100A30000895FC011082E2E1FDE08081918101973F
:100A4000918380830895009711F0FC0103C0EAE2CE
:100A5000F3E002C0E757FF4F88E0E438F80728F4D6
:100A600080818823B9F3CF01089580E090E0089554
:100A7000FC01ED57FF4F1082E0EFFCE020812F5F7B
:100A80002083FC0124872091EC0C3091ED0C3687FB
:100A900025870895E9E8F8E080E090E02FEF3FEF48
:100AA00057E0DF0114972D933C93589FD001599F35
:100AB000B00D1124AC57B74F4C914E7F4C93108220
:100AC000019637968436910561F70895CF93DF93A9
:100AD000A5E8B8E020E030E0C7E070E0ED91FC91DF
:100AE0001197E817F90789F4C29FF001C39FF00D31
:100AF0001124EC57F74FD081D1FB442740F950E047
:100B00004617570711F4CF0108C02F5F3F4F1796C4
:100B10002436310519F780E090E0DF91CF910895F8
:100B2000E0E0F0E0A4E8B8E08C9180FD0BC0159601
:100B30008C911597882361F0309719F0958189176A
:100B400008F4FD0117968BE0A034B80769F701C0DF
:100B5000FD0180818D708063808380E88583CF0173
:100B60000895FC01808180FD05C08FEF9FEF928387
:100B70008183158208950E946605009721F0FC018B
:100B80008381948108958FEF9FEF089584E898E022
:100B90000895EF92FF920F931F93CF93DF93EC0191
:100BA000F62E8A01E22E0E946605FC01009719F4D8
:100BB0000E949005FC01D283C1831483038380814A
:100BC000F0FA81F98F708063808380E88583E68204
:100BD000DF91CF911F910F91FF90EF9008950E94A8
:100BE0006605009711F00C94B1050895EF92FF92FD
:100BF0000F931F93CF93DF93EC0109851A8517FF9D
:100C000006C08D859E850817190709F044C08D819F
:100C10009E81019609F43FC060E08D859E850E940B
:100C20006605FC01CE018D579F4F7C01309729F15D
:100C30008F819885019669F441E02091EC0C309108
:100C4000ED0C8F8598892817390709F040E0242F8B
:100C500001C020E0838194818017910729F0D7019A
:100C60009C918681891710F020FF12C014830383A2
:100C700080818F70806380830BC00E949005FC018F
:100C80008D859E859283818389859A8594838383CC
:100C9000D7018C918683DF91CF911F910F91FF90A7
:100CA000EF900895CF93DF93EC018F8598898F3F64
:100CB0002FEF9207B1F16B8563FB662760F90E9405
:100CC0006605FC01009769F1808180FD2AC0CD573F
:100CD000DF4F9881282F2F70911113C0206320833C
:100CE00085818F5F85838F3FE1F4E9E8F8E08081BB
:100CF00086958F5F808337968BE0E534F807B9F7E8
:100D000010C082958F70815F8F70982F9295907F21
:100D1000922B9083811105C0CF01DF91CF910C946C
:100D2000B105DF91CF910895CF93DF93EC018F85CB
:100D300098898F3F2FEF920741F06B8562FD05C0C8
:100D400063FB662760F90E94BB0598878F83DF915C
:100D5000CF910895BF92CF92DF92EF92FF920F93BF
:100D60001F93CF93DF938C01FC01B384B3FABB24B0
:100D7000B0F8C784D0886B2DC6010E94BB050196D0
:100D8000A1F0F801E957FF4F11821082319782E0FC
:100D90008083C801DF91CF911F910F91FF90EF9059
:100DA000DF90CF90BF900C94160AF801E584F6848A
:100DB0000E94E804EC010097D1F00E943805898177
:100DC0008A5F8983FE01E957FF4F11821082F88AFA
:100DD000EF8636970190F081E02D81E08083F282EA
:100DE000E182D482C382B582CE010E94160AC80174
:100DF000DF91CF911F910F91FF90EF90DF90CF90F7
:100E0000BF900C941905DC011796ED91FC91189791
:100E100019968C91863039F46581838194810E9482
:100E2000EF0581E0089580E00895E2E5FBE020E031
:100E30003081332319F03150308321E035963CE086
:100E4000EC34F307A9F721110C94AB010895DC01F0
:100E500019962C911997222369F01796ED91FC9120
:100E600018972081222321F0213021F40C940307CC
:100E70000C94AC0A80E00895E2E5FBE01082359620
:100E80008CE0EC34F807D1F784E690E0A0E0B0E025
:100E90008093460B9093470BA093480BB093490B5C
:100EA00010924A0B85E197E090934C0B80934B0B8B
:100EB00067E277E080E00C94AB03CF93DF93EC0123
:100EC000E881F9818181883801F580818F7D8134C5
:100ED000E1F48A818031C8F00E94E8040097A9F00B
:100EE00020E2FC0120832A8121832B81ED57FF4FD3
:100EF00020832C81319620834A8150E0688179815A
:100F00000296DF91CF910C948217DF91CF910895D3
:100F100080934D0B08956F927F929F92AF92BF92F4
:100F2000CF92DF92EF92FF920F931F93CF93DF93B5
:100F3000CDB7DEB72C970FB6F894DEBF0FBECDBF8E
:100F400000E010E094E2D92E9924939422E2C22E7C
:100F500033E2A32E45E1B42EEE24E394F12CC80134
:100F60000E9423058C01009709F4B9C1D8018C9126
:100F7000823209F4AAC018F4803251F0F0CF8332E3
:100F800009F475C1843259F7C8010E941905E7CFE9
:100F9000F801D0824385842F8A7009F72581368134
:100FA000878590892F3F3F4F61F42091EC0C309161
:100FB000ED0C2817390711F0019689F6D801CC926B
:100FC000CECF019611F440FDCACF2091EC0C3091A8
:100FD000ED0CF801858596852817390709F4BFCFF0
:100FE000C8010E94F605EEE4FBE040E050E0848199
:100FF000882309F44AC0D8011D962D913C911E9773
:10100000808191812817390709F040C01C969C9176
:101010001C974281491B8381483060F5282F30E0BE
:10102000042E02C0359527950A94E2F720FF19C0D7
:101030002091EC0C3091ED0C17968D919C911897A6
:101040002817390709F08BCF1B966C911B9763FB10
:10105000662760F91F968D919C9150970E94EF052D
:101060007ECF9701042E01C0220F0A94EAF7822B4B
:10107000838301C192834195042E01C0880F0A9495
:10108000EAF781608383B482F6C0AF013596BCE095
:10109000E834FB0709F0ABCF4115510509F45FCFE8
:1010A000F80185859685DA0111969C938E93848547
:1010B00012968C93129713969C9213971496BC9247
:1010C00080E49BE00E94AB01D6C010924D0BF8016A
:1010D0003189232F22952F70E22FF0E0EE0FFF1FB2
:1010E000EE50F34F0190F081E02D309709F45EC08F
:1010F000D8011D968D919C911E979A8389831F9686
:101100004D915C9150975C834B833F703D832E8360
:10111000AF57BF4F6D917C917987688798012E5F9B
:101120003F4F261B370BD80111963C911197320F78
:101130003A87AD57BF4F2C912B8711962C912C8756
:10114000D8011B962C91622F637022FF02C030E2FF
:1011500001C030E0632B23FF02C030E401C030E067
:10116000362B4F3F5F4F11F424E001C020E0432FA6
:10117000422BD80119962D913C911A97821793070B
:1011800011F498E001C090E0242F292BD801159686
:101190008D919C911697019611F480E101C080E039
:1011A000822B8F83CE010196199501C080E0F80152
:1011B000938590FF80E0D80117964D915C91189728
:1011C0002091EC0C3091ED0C4F3F5F4F41F4F80152
:1011D000478550892417350711F493FF81E0D80122
:1011E00015964D915C9116974F3F5F4F09F480E043
:1011F0002F3F3F4FC9F18823B9F10E94E8043C0119
:10120000009791F10E943805D30111968C911197A6
:101210008D5F11968C931197F301E957FF4F11825F
:101220001082F8019385969591701B968C911B976F
:1012300090FB81F91B968C931B978585968550961C
:101240009C938E931F97F301EF57FF4F0190F0810E
:10125000E02D108280914D0B8283D8011C968C91D9
:101260008183C3010E94160AF801D08278CEC8019A
:101270000E94AA0674CED80117968D919C9118975A
:10128000019681F42091EC0C3091ED0CF8018785EA
:1012900090892817390731F0838582FD03C0C80182
:1012A0000E94640A8091EC0C9091ED0CD8011F967D
:1012B0002D913C9150978217930719F02F3F3F4F84
:1012C00019F4F801C0824BCED80117962D913C91AC
:1012D00018978217930709F042CEAC9240CE2C9615
:1012E0000FB6F894DEBF0FBECDBFDF91CF911F9137
:1012F0000F91FF90EF90DF90CF90BF90AF909F90B5
:101300007F906F9008950F931F93CF93DF93EC011D
:1013100010E0E0E0F0E003E1CF010E942305FC01D2
:10132000009791F080818131B9F7DF01AC57BF4F51
:101330002D913C911197215031092D933C93232BF2
:1013400009F4008311E0E8CF112339F0CE01DF91D9
:10135000CF911F910F910C94AB01DF91CF911F9111
:101360000F910895FF920F931F93CF93DF93EC019A
:1013700010E0E0E0F0E007E180E1F82ECF010E940C
:101380002305FC010097A9F080818631B9F7DF01C0
:10139000AC57BF4F2D913C911197215031091196B7
:1013A0003C932E93232B19F400831197FC9211E0A8
:1013B000E5CF112341F0CE01DF91CF911F910F9125
:1013C000FF900C94AB01DF91CF911F910F91FF9093
:1013D00008951092630C1092620C82E390E0A0E0FA
:1013E000B0E080935B0C90935C0CA0935D0CB09389
:1013F0005E0C10925F0C82EB99E09093610C8093ED
:10140000600C8AE090E0A0E0B0E080934E0C9093F6
:101410004F0CA093500CB093510C1092520C83E8D7
:1014200099E09093540C8093530C08950F931F935D
:10143000CF93DF93EC01FC01EA57FF4F208182E15B
:1014400088833397108220FF03C08FEF9FEF04C083
:101450008091EE0C9091EF0C9E838D83257021F48A
:10146000CE010E94940604C08F85988998878F8347
:101470008091EC0C9091ED0C9A8789878091F10C0A
:101480008F5F8093F10C8C838F8198858E010C5730
:101490001F4F019669F481E498E89B838A830E9438
:1014A0007317877099270196F8019183808307C08D
:1014B00081E698E89B838A83F80111821082DF918C
:1014C000CF911F910F9108950F931F93CF93DF93A7
:1014D0008C010E94E804EC010097C9F182E1888345
:1014E000F80181818983FE01ED57FF4F10820E9430
:1014F0007317FE01EC57FF4F877099270196918370
:101500008083339611821082F801418150E0B80146
:101510006E5F7F4FCE0102960E94821781E498E8A9
:101520009B838A838FEF9FEF98878F83F801858154
:1015300096819E838D838091EC0C9091ED0C9A871F
:1015400089878091F10C8F5F8093F10C8C83DF9100
:10155000CF911F910F910895CF93DF93FC01C78125
:10156000D0858185833011F080E015C080E090E067
:101570000E9423050097C1F3FC0120812631C1F7A9
:10158000348529813213F4CF27E120832A81EA5759
:10159000FF4F208381E0DF91CF91089527E1FC0187
:1015A0002083ED57FF4F60830895A091620CB091A6
:1015B000630C833030F4E82FF0E0E25BFD4F808174
:1015C00001C081E0FD01ED57FF4F808385E18C93E1
:1015D0001092630C1092620C8091120D9091130D79
:1015E00001979093130D8093120D0895BF92CF929F
:1015F000DF92EF92FF920F931F93CF93DF93C0E0A0
:10160000D0E094E1E92E27E1F22E36E1D32E05E178
:1016100010E043E1C42E51E1B52ECE010E94230516
:10162000EC01009709F462C088818331B9F018F4A5
:10163000823139F0F2CF853159F1873109F445C053
:10164000ECCFFE01EC57FF4F80819181892B21F077
:10165000B88288E49CE034C0C882DFCF8091620CFD
:101660009091630C892BC9F6D093630CC093620CE4
:10167000E8826981CE0102960E948D028091120D4E
:101680009091130D01969093130D8093120DC5CF79
:10169000FE01ED57FF4F8081811115C02D853E85DC
:1016A0008091EC0C9091ED0C2817390761F48B8533
:1016B00080FF09C0D88231961183008385E59CE0C4
:1016C0000E94AB01AACFF882A8CFCE010E94520699
:1016D000FE01E957FF4F0190F081E02DCE013097D8
:1016E00019F40E94190599CF199597CFDF91CF91E1
:1016F0001F910F91FF90EF90DF90CF90BF900895D2
:101700008091B6008F71E1F70895FF920F931F93B8
:10171000CF93DF9325E0660F771F881F991F2A95C7
:10172000D1F728EE33E040E050E00E94D3162115B7
:1017300031054105510509F452C0BB27A52F942F4F
:10174000832F8C01F22E109270003091B60030621F
:101750003093B6001092B0001092B1001092B20017
:101760000E94800B37E037BB3093B100CFEFD7E05A
:101770001092640C0115110519F0C093B30016C046
:10178000FF2019F0F092B30011C00E94800B10925C
:1017900070001092B10083B5826083BD0E94800BFF
:1017A0008091B6008F7D8093B60019C03091700093
:1017B0003260309370000E94800BD3BF889513BEB7
:1017C0004FB7F8943091640C4FBF332389F2011561
:1017D000110511F4F12CCCCF01501109C9CFDF91C3
:1017E000CF911F910F91FF9008951F920F920FB606
:1017F0000F9211248F9381E08093640C8F910F904E
:101800000FBE0F901F9018959B01AC0184E0220F32
:10181000331F441F551F8A95D1F760E074E284EFAF
:1018200090E00E94D3162150310941095109BB278C
:10183000A52F942F832F8093CD002093CC0082E09E
:101840008093C80088E98093C90086E08093CA002D
:1018500083E79CE09093E10C8093E00C84E690E0B9
:101860009093DD0C8093DC0C1092DF0C1092DE0C58
:101870001092D90C1092D80C1092DB0C1092DA0C4A
:1018800087E69CE09093720C8093710C81E090E06D
:1018900090936E0C80936D0C1092700C10926F0CE4
:1018A00010926A0C1092690C10926C0C10926B0CD6
:1018B0008093660C1092650C08952091DE0C309197
:1018C000DF0C4091DC0C5091DD0C24173507F9F04A
:1018D000E091E00CF091E10CA091DA0CB091DB0CFE
:1018E000BD016F5F7F4F7093DB0C6093DA0CEA0FE2
:1018F000FB1F80836417750721F41092DB0C109294
:10190000DA0C2F5F3F4F3093DF0C2093DE0C0895ED
:101910006FB7F894E091710CF091720C8091690CA2
:1019200090916A0C9C012F5F3F4F30936A0C20937B
:10193000690CE80FF91F80814091690C50916A0C85
:1019400020916D0C30916E0C4217530721F41092C8
:101950006A0C1092690C20916F0C3091700C215020
:1019600031093093700C20936F0C6FBF08951F9254
:101970000F920FB60F9211240BB60F928F93EF9325
:10198000FF9381E08093660CE9ECF0E080818F7D2D
:101990008083FF91EF918F910F900BBE0F900FBE40
:1019A0000F901F9018951F920F920FB60F9211244F
:1019B0000BB60F922F933F934F938F939F93EF9379
:1019C000FF938091C8004091CE008C71C1F52091A9
:1019D0006F0C3091700C80916D0C90916E0C2817EB
:1019E000390769F1E091710CF091720C80916B0CE8
:1019F00090916C0C9C012F5F3F4F30936C0C2093A7
:101A00006B0CE80FF91F408320916B0C30916C0C2C
:101A100080916D0C90916E0C2817390721F410926B
:101A20006C0C10926B0C80916F0C9091700C019665
:101A30009093700C80936F0C81E08093650CFF9104
:101A4000EF919F918F914F913F912F910F900BBEEE
:101A50000F900FBE0F901F9018958091DE0C909103
:101A6000DF0C009791F12091660C222371F1E09137
:101A7000E00CF091E10C4091D80C5091D90C9A01F6
:101A80002F5F3F4F3093D90C2093D80CE40FF51FF4
:101A900060814091DC0C5091DD0C2417350721F456
:101AA0001092D90C1092D80C01979093DF0C809370
:101AB000DE0C9FB7F8946093CE008091C9008062DD
:101AC0008093C9001092660C9FBF3FB7F894209195
:101AD000650C1092650C80916F0C9091700C3FBF5B
:101AE00021110C949714089514BE88E10FB6F89450
:101AF00080936000109260000FBEE1E6F0E080E8A5
:101B00008083108278940C94880D90E00C949D0D45
:101B10001092140D80E197E29093A9008093A800A1
:101B2000E1EAF0E088E08083808182608083E2E700
:101B3000F0E080818260808308952091A40030913C
:101B4000A500280F391F3093AB002093AA002091E5
:101B5000AA003091AB008091A8009091A900821753
:101B6000930770F48091AA009091AB002091A80097
:101B70003091A900821B930B9093AB008093AA0035
:101B800084E089BBCA9BFECF08951F920F920FB6C7
:101B90000F9211248F938091140D8F5F8093140DF9
:101BA0008F910F900FBE0F901F90189514B81AB810
:101BB0001DB810BA13BA15B81BB81EB811BA14BAAA
:101BC000EAE7F0E080818F77808380E880BF8FEF45
:101BD00080937E0080937D0083E080937F00089552
:101BE000CF93DF93EC0160E080E090E00E94BB05C2
:101BF0009093580D8093570D1092350D1092340D1F
:101C00008091B7118093360D8093370D82E08093D9
:101C1000380D80E49DE090933A0D8093390D85E274
:101C200080933B0DD0933D0DC0933C0D8FE29DE022
:101C3000DF91CF910C942504EF92FF920F931F93A5
:101C4000CF93DF93EC0160E080E090E00E94BB0561
:101C50009093580D8093570D0E94DB137C010E94D6
:101C6000F2138C018091C91180935B0D20E030E06C
:101C700000935C0D10935D0D20935E0D30935F0D0E
:101C8000A70160E070E04093600D5093610D609398
:101C9000620D7093630D1092350D1092340D80918A
:101CA000B7118093360D8093370D82E08093380D05
:101CB00080E49DE090933A0D8093390D85E2809306
:101CC0003B0DD0933D0DC0933C0D8FE29DE0DF9125
:101CD000CF911F910F91FF90EF900C9425040E94DB
:101CE000D60D569A5E9A9A9AA29A6A9A729A08950C
:101CF0007F928F929F92AF92BF92CF92DF92EF929C
:101D0000FF920F931F93CF93DF9381E08093400D59
:101D10008091B3118093410DE2E0F1E0A1E2A09344
:101D20005700A491E3E0F1E021E2209357002491D1
:101D3000E4E0F1E0B1E2B0935700B491E5E0F1E006
:101D400081E280935700A490E6E0F1E08093570091
:101D50008490E7E0F1E0809357007490E8E0F1E0D0
:101D6000809357009490E9E0F1E080935700E4916C
:101D700030E040E050E060E070E080E090E008E0BB
:101D80000E940417C22FB32E6A017B01182FD92F8E
:101D90002B2F30E040E050E060E070E080E090E029
:101DA00000E10E940417C22BB32AC42AD52AE62ACE
:101DB000F72A182BD92BCA2B2A2D30E040E050E00F
:101DC00060E070E080E090E008E10E940417C22B20
:101DD000B32AC42AD52AE62AF72A182BD92B282D6C
:101DE00030E040E050E060E070E080E090E000E251
:101DF0000E940417C22BB32AC42AD52AE62AF72A3E
:101E0000182BD92B272D30E040E050E060E070E047
:101E100080E090E008E20E940417C22BB32AC42A93
:101E2000D52AE62AF72A182BD92B292D30E040E0B5
:101E300050E060E070E080E090E000E30E94041772
:101E4000C22BB32AC42AD52AE62AF72A182BD92B63
:101E50002E2F30E040E050E060E070E080E090E065
:101E600008E30E940417C22BB32AC42AD52AE62A03
:101E7000F72A182BD92BE2E4FDE0C083B182C2829D
:101E8000D382E482F5821683D783E2E0F1E0A1E217
:101E9000A0935700A491E3E0F1E081E28093570022
:101EA000E491B0E0BE2BB093E30CA093E20CB093AE
:101EB0004B0DA0934A0DECE4FDE0C083B182C282D9
:101EC000D382E482F5821683D7838091B4119091F6
:101ED000B5119093550D8093540D8091B611809358
:101EE000560D1092580D1092570D1092590D1092D8
:101EF0005A0D8091C91180935B0D10925C0D109268
:101F00005D0D10925E0D10925F0D1092600D10929B
:101F1000610D1092620D1092630DDF91CF911F91B0
:101F20000F91FF90EF90DF90CF90BF90AF909F9078
:101F30008F907F900895CF93DF93EC018091E20C16
:101F40009091E30C0E949F038091B4119091B51180
:101F50000E94A5038091B6110E9442028091C9118E
:101F6000829586958770880F0E946E0281E00E949C
:101F70003E02BE018091B7110E94AB030E94BB02DA
:101F80000E94BB020E94BB02DF91CF910C94771795
:101F90002091C9112F7130E02F5F3F4F60E177E250
:101FA000269FA001279F500D369F500D11246627B4
:101FB00057FD6095762F40931B0D50931C0D609339
:101FC0001D0D70931E0D10921F0D9093210D809387
:101FD000200D08954AEF50E060E070E04093280D36
:101FE0005093290D60932A0D70932B0D21E02093BF
:101FF0002C0D90932E0D80932D0D08959091C91165
:10200000981739F18093C9110E9455168091C91112
:10201000829586958770880F0E946E022091C91163
:102020002F7130E02F5F3F4F40E157E2249FC00106
:10203000259F900D349F900D1124AA2797FDA09500
:10204000BA2F80931B0D90931C0DA0931D0DB09380
:102050001E0D0895089508950E946F0E0E94780E37
:102060001092E30C1092E20C10924B0D10924A0D5C
:1020700081E490E10E949B0F5E9881E08093E90CDF
:102080000895FF920F931F93CF93DF93DC0119966E
:102090004C9119971796ED91FC9118978091E80C47
:1020A00081114AC014A2CF018496DF013D9124A181
:1020B000232724A3A817B907C9F760E070E011E04F
:1020C00020E030E081E090E0A42FB0E06A177B07C9
:1020D00000F501916F5F7F4FAC014F5F5F4F0111C2
:1020E00006C0E901CB59D24F18839C010FC0EC0107
:1020F000CB59D24F08831F5F1F3F49F4E901CB59E9
:10210000D24F18839A01AC014E5F5F4F11E0CA01B4
:10211000DDCFF901EB59F24F1083F82E05E61DE0F3
:10212000E8018C2F801B8F1520F489910E945D0C93
:10213000F8CF80E00E945D0C8091C9110E94880751
:1021400081E0DF91CF911F910F91FF90089585E07D
:102150008093E90C08950E94CF03569A5E9A9A9A4A
:10216000A29A6A9A729A81E08093E90C08950F937B
:102170001F93CF93DF9356985E989A98A2986A9887
:1021800072980E94D60D8091C9118F7190E00196CE
:10219000C0E1D7E28C9F80018D9F100D9C9F100D98
:1021A000112483E0159507958A95E1F70E9473172E
:1021B0009C01D8010E94F5162FEF3FE740E050E068
:1021C0000E94D3168091C9118F7190E001968C9F67
:1021D000B0018D9F700D9C9F700D1124882777FD95
:1021E0008095982F20FF05C0621B730B840B950B05
:1021F00004C0620F731F841F951F0E94850B87E028
:102200008093E90CDF91CF911F910F9108950E9467
:10221000B403811105C00E94CD0386E08093E90CD0
:1022200008955E988AE191E10E941C0E82E08093FD
:10223000E90C08955E9AFC0180890E94FE0F83E0FC
:102240008093E90C08950E946F0E0E94780E80E042
:1022500090E00E949B0F81E08093E90C08958FEF3E
:102260008093E40C8091E90C843019F481E0809330
:10227000E90C0895EAE9FDE020E03FEF80819181DB
:1022800081154FEF940739F001969183808303976E
:1022900010F031832083709680E1EA3BF80771F7F4
:1022A00008958091E40C8F3F31F41092E40C85E1A5
:1022B0009DE00E94AB018FEF9FEF9093E60C80931F
:1022C000E50C84E08093E90C08955E9AFC01808916
:1022D0000E94FE0F83E08093E90C08950E946F0E28
:1022E0000E94780E8FE291E10E94C80F8AE391E18B
:1022F0000E94EA0F80E090E00E949B0F809A8898ED
:102300008198E2E9FDE02FEF80E09FEF20832183B9
:1023100022832383248325832683278391878087B1
:10232000709630E1E23BF30789F78FEF9FEF9093D0
:10233000E60C8093E50C8093E40C82E29DE00E9421
:10234000AB0181E08093E90C08958091E90C843021
:1023500059F58091E50C9091E60C019629F5ECE990
:10236000FDE080E090E0DF0112972D913C91211576
:102370003F4F19F02081222331F00196709682336D
:10238000910589F70895FC0124E0EE0FFF1F2A95BF
:10239000E1F7EE56F24F2FEF22879093E60C8093F1
:1023A000E50C81E08093E90C0895CF938091E40CD3
:1023B0008F3F49F40E94780E5E9885E691E10E9475
:1023C0001C0E82E007C08091E50C9091E60C01960E
:1023D00021F484E08093E90C69C0C2E0C093400D11
:1023E000E091E50CF091E60C34E0EE0FFF1F3A951A
:1023F000E1F7EE56F24F80818093420D8181809308
:10240000430D82818093440D83818093450D8481A7
:102410008093460D85818093470D86818093480D7A
:1024200087818093490DE091E50CF091E60C44E042
:10243000EE0FFF1F4A95E1F7EE56F24F838580932A
:102440005A0DE091E50CF091E60C54E0EE0FFF1F01
:102450005A95E1F7EE56F24F84859585A0E0B0E0FD
:1024600080935C0D90935D0DA0935E0DB0935F0D16
:10247000E091E50CF091E60C64E0EE0FFF1F6A9529
:10248000E1F7EE56F24F86859785A0E0B0E08093A5
:10249000600D9093610DA093620DB093630D5E98F3
:1024A00085E691E10E94F00DC093E90CCF9108956B
:1024B0002F923F924F925F926F927F928F929F9254
:1024C000AF92BF92CF92DF92EF92FF920F931F9342
:1024D000CF93DF93CDB7DEB72F970FB6F894DEBF5B
:1024E0000FBECDBF4C01FC01838D0E942914782EB4
:1024F000F401848D0E942914F0E17F9E9001112443
:10250000822BF40120E030E090E0419194272F5F8E
:102510003F4F2B313105C9F7891334C118861F820B
:10252000F40181810E942914782EF40182810E9495
:102530002914F0E17F9E90011124822B8E83F401F7
:1025400083810E942914782EF40184810E94291429
:10255000F0E17F9E90011124822B8D83F40185810F
:102560000E942914782EF40186810E942914F0E13A
:102570007F9E90011124822B8C83F40187810E941D
:102580002914782EF40180850E942914F0E17F9EA1
:1025900090011124822B8B83F40181850E942914E0
:1025A000782EF40182850E942914F0E17F9E90012B
:1025B0001124822B8A83F40183850E942914782EAA
:1025C000F40184850E942914F0E17F9E900111247A
:1025D000822B8983F40186850E942914782EF401C8
:1025E00087850E942914F0E17F9E90011124822B9F
:1025F0008D87F40181890E942914782EF401828943
:102600000E942914F0E17F9E90011124822B89877A
:10261000F40183890E942914782EF40184890E9490
:102620002914F0E17F9E90011124822B8A87F40106
:1026300086890E942914782EF40187890E94291422
:10264000F0E17F9E90011124822B8B87F401808D15
:102650000E942914782EF401818D0E942914F0E142
:102660007F9E90011124822B8C8729803A804B8099
:102670005C806D807E80EF81EE87F885FF87E2E9E0
:10268000FDE0AFEFBFEF812C912C80859185811506
:102690009F4F31F4AF3F8FEFB807A9F4D40113C0B7
:1026A0002081318142815381648175818681978146
:1026B0005101620173010E851F850E941D1719F4D7
:1026C000D401BD6F23C09FEF891A990A709622E347
:1026D00082169104D1F6AF3F8FEFB807A9F0FD0144
:1026E00014E0EE0FFF1F1A95E1F7EE56F24F20822D
:1026F000318242825382648275829E8596832F85C1
:1027000027831186108602C0A0E0BEEFCD01882786
:102710009D7F81159D4FC9F4BB27E4E0AA0FBB1F25
:10272000EA95E1F7AE56B24FFD851B96FC931B97D9
:102730008B859C851D969C938E931C9789859A8585
:102740001F969C938E931E971DC0A1152EEFB20766
:10275000C9F074E0AA0FBB1F7A95E1F7AE56B24FED
:102760008D851B968C931B978B859C851D969C93C2
:102770008E931C9789859A851F969C938E931E979E
:102780001A961C922F960FB6F894DEBF0FBECDBFDF
:10279000DF91CF911F910F91FF90EF90DF90CF903D
:1027A000BF90AF909F908F907F906F905F904F9071
:1027B0003F902F9008958AE08093770088E080937F
:1027C0007B0089EC80937C0084EC80937A0080917C
:1027D0007A0086FDFCCF10927A008091780090916B
:1027E000790008958AE08093770088E080937B00E9
:1027F00086EC80937C0084EC80937A0080917A0050
:1028000086FDFCCF10927A0080917800909179003B
:102810000895CF93DF93EC018991882319F00E94EA
:102820005D0CFACFDF91CF910895CF93C82FA82FD9
:10283000A295AF70B0E0AC5CBD4F8C910E945D0C76
:10284000CF70EC2FF0E0EC5CFD4F8081CF910C94C9
:102850005D0C9FEB980F963008F48062E4E3F2E0A1
:1028600090E02191281729F09F5F9031D1F780E8FF
:102870000895892F0895DF92EF92FF920F931F938F
:10288000CF93DF93EC018B018091B5100E94291446
:10289000D82E8091B6100E942914F82E023011050E
:1028A00051F48091B7100E942914E82E8091B8103D
:1028B0000E94291402C080E0E12C9F2D9D299E29B1
:1028C000982B97FF0BC081E592E0DF91CF911F918C
:1028D0000F91FF90EF90DF900C9409142D2D30E0B4
:1028E0000230110579F4322F22273295307F3F29AB
:1028F000282B40E1E49EC0011124282B392B398379
:10290000288307C084E0220F331F8A95E1F72F291F
:102910002883DF91CF911F910F91FF90EF90DF906F
:102920000C9455160E94091480E00C945D0C2F92B3
:102930003F924F925F926F927F928F929F92AF924F
:10294000BF92CF92DF92EF92FF920F931F93CF939C
:10295000DF9300D01F921F92CDB7DEB77C0100E05D
:1029600010E032EB232E30E1332EC12CDD24D39442
:1029700050E1A52E57E2B52E44244A946FE7562E17
:10298000612C712C0E151F0509F440C10E94880CA2
:102990008D3019F08A3009F029C18091B2108A3245
:1029A00029F482EB90E10E94581217C180628136AF
:1029B00009F029C18091B3108062843709F023C1E6
:1029C0008091B410882309F401C180628837D1F462
:1029D0008091B5108F3341F0813321F421E02093B1
:1029E000E80C02C01092E80C86E592E00E940914FF
:1029F0008091E80C882311F081E301C080E30E94FC
:102A00005D0CE4C08A3761F428E088E190E00FB6FD
:102A1000F894A895809360000FBE20936000FFCFCC
:102A20008E3609F048C08091B5108F3339F489E5AE
:102A300092E00E9409148091B311C6C0803381F4E2
:102A40001092B3110E94551628E088E190E00FB66D
:102A5000F894A895809360000FBE20936000FFCF8C
:102A6000813389F481E08093B3110E94551628E0E8
:102A700088E190E00FB6F894A895809360000FBEAF
:102A800020936000FFCF823389F482E08093B311FA
:102A90000E94551628E088E190E00FB6F894A895BA
:102AA000809360000FBE20936000FFCF81E592E02D
:102AB0000E9409148BC0813689F48091B5108F3340
:102AC00031F061E070E089EC91E10E943B148EE509
:102AD00092E00E9409148091C91176C08037A9F450
:102AE0008091B5108F3331F062E070E084EB91E1BA
:102AF0000E943B1483E692E00E9409148091B51174
:102B00000E9415148091B4115FC0833689F48091BE
:102B1000B5108F3331F061E070E086EB91E10E94F7
:102B20003B1488E692E00E9409148091B6114CC0D3
:102B3000823709F068C08091C9118F7190E00196C9
:102B40008A9DF0018B9DF00D9A9DF00D112423E0DC
:102B5000F595E7952A95E1F7FD83EC830E947317BD
:102B6000982E892E282F392FAC81BD810E94F51611
:102B7000A30192010E94D3168DE692E02B833A8343
:102B800049830E9409148D810E9415148C810E9432
:102B9000151482E792E00E940914882D0E941514F2
:102BA000892D0E94151488E792E00E94091480E0A4
:102BB0000E9415144981842F0E9415143A81832F95
:102BC0000E9415142B81822F0E9415148EE792E02B
:102BD0000E94091480E00E945D0CF101960111929F
:102BE00021503040E1F71092E70C0AC09091E70CB9
:102BF000E92FF0E0EE54FF4E80839F5F9093E70C47
:102C00000F5F1F4FBFCE83E892E0E2CF0F900F908F
:102C10000F900F900F90DF91CF911F910F91FF9028
:102C2000EF90DF90CF90BF90AF909F908F907F906C
:102C30006F905F904F903F902F90089581E091E0CA
:102C4000E2EBF0E1DF019C011D9221503040E1F701
:102C50001092E70C86E892E00E94091480E00C9440
:102C60005D0CF999FECF92BD81BD81E08FBB80B52F
:102C700008952FB7F894F999FECF92BD81BD81E0F8
:102C80008FBB80B58627982F962339F06F3F19F0B8
:102C900060BD84E006C084E104C0882321F060BDEB
:102CA00084E28FBBF99A2FBF08950F931F93CF93A0
:102CB000DF9303EB11E1C0E0D0E0F80161918F01F7
:102CC000CE010E9439162196C731D105B1F7DF91A7
:102CD000CF911F910F91089503EB11E1C0E0D0E077
:102CE000CE010E943116F80181938F012196C731E0
:102CF000D105B1F78091B4119091B5110196F1F41D
:102D000021E02093B31183E799E19093B51180936B
:102D1000B41186E18093B6112093B71182E08093BD
:102D2000B8111092C91180E1E0E9F2E0A9EBB1E13C
:102D300001900D928A95E1F70E9455161092E80CC9
:102D40008091B311811103C084E092E007C081300B
:102D500019F484E292E002C084E192E09093EB0CDB
:102D60008093EA0C0E94F40060E076E980E090E055
:102D70000E94040C0E941E160E94FC000E942D0D51
:102D80008091E90C2091EA0C9091EB0CE22FF92F45
:102D9000E80FF11DE80FF11D0190F081E02D309753
:102DA00059F31995E9CFA1E21A2EAA1BBB1BFD010D
:102DB0000DC0AA1FBB1FEE1FFF1FA217B307E4071A
:102DC000F50720F0A21BB30BE40BF50B661F771F72
:102DD000881F991F1A9469F7609570958095909552
:102DE0009B01AC01BD01CF010895A29FB001B39F2B
:102DF000C001A39F700D811D1124911DB29F700D04
:102E0000811D1124911D08950F93083090F0982F83
:102E1000872F762F652F542F432F322F22270850CC
:102E2000F4CF220F331F441F551F661F771F881FC3
:102E3000991F0A95B2F70F9108952A153B054C0585
:102E40005D056E057F058007910708958F929F921B
:102E5000AF92BF92CF92DF92EF92FF92CF93DF9328
:102E6000EC01688179818A819B81611571058105F9
:102E7000910521F464E279ED8BE597E02DE133EFE4
:102E800041E050E00E948B1749015A019B01AC01BF
:102E9000A7EAB1E40E94AA176B017C01ACEEB4EF83
:102EA000A50194010E94B817C60ED71EE81EF91E90
:102EB000F7FE06C081E0C81AD108E10880E8F80AE8
:102EC000C882D982EA82FB82C6019F77DF91CF91C7
:102ED000FF90EF90DF90CF90BF90AF909F908F903A
:102EE00008950C94261780E092E00C942617A0E039
:102EF000B0E08093000290930102A0930202B0938D
:102F000003020895FB01DC0102C001900D924150C3
:102F10005040D8F70895052E97FB1EF400940E94A8
:102F2000A21757FD07D00E94D31607FC03D04EF41A
:102F30000C94A21750954095309521953F4F4F4FD7
:102F40005F4F089590958095709561957F4F8F4F55
:102F50009F4F08950E94F516A59F900DB49F900D68
:102F6000A49F800D911D11240895B7FF0C94AA17FA
:0E2F70000E94AA17821B930B0895F894FFCFBE
:102F7E00010000002C102A1000002B100000000091
:102F8E0000000000231111110000A710000007110E
:102F9E00B710AB106E11D51100005111A511000024
:102FAE000000000030313233343536373839616243
:102FBE00636465660003081A4080BEE6F7FC0020D5
:102FCE00214552520A00583A004E3A307800413AA2
:102FDE00307800503A307800433A307800493A3031
:102FEE0078000A523A3078000A543A3078000A4F84
:102FFE004B0A003F0A0042697453746F726D0A00E7
:10300E00635068546563684D6B3132333078797A2A
:02301E000000B0
:00000001FF
